{
	"data": {
		"bytecode": {
			"linkReferences": {},
			"object": "60806040525f6002556611c37937e080006003555f6004556101f46005556127106006556611c37937e080006007556276a70060085560216009556040518060a00160405280600161ffff16815260200161012c61ffff168152602001610bb861ffff16815260200161465061ffff16815260200161c35061ffff16815250600a90600561008e929190610167565b506040518060a001604052805f67ffffffffffffffff1681526020016611c37937e0800067ffffffffffffffff168152602001662386f26fc1000067ffffffffffffffff16815260200166b1a2bc2ec5000067ffffffffffffffff16815260200167016345785d8a000067ffffffffffffffff16815250600f9060056101159291906101ad565b50348015610121575f80fd5b503360145f6101000a81548173ffffffffffffffffffffffffffffffffffffffff021916908373ffffffffffffffffffffffffffffffffffffffff160217905550610214565b826005810192821561019c579160200282015b8281111561019b578251829061ffff1690559160200191906001019061017a565b5b5090506101a991906101f9565b5090565b82600581019282156101e8579160200282015b828111156101e7578251829067ffffffffffffffff169055916020019190600101906101c0565b5b5090506101f591906101f9565b5090565b5b80821115610210575f815f9055506001016101fa565b5090565b611d5a806102215f395ff3fe6080604052600436106101c1575f3560e01c806387ae89db116100f6578063b2bdfa7b11610094578063d77836ce11610063578063d77836ce14610630578063d9f7cef514610658578063f943678414610680578063faad525c146106aa576101c1565b8063b2bdfa7b14610596578063bf555b89146105c0578063d0e30db0146105ea578063d2c11653146105f4576101c1565b80639173a675116100d05780639173a675146104c9578063a2468c1914610505578063a3ccd4781461052f578063a87430ba14610557576101c1565b806387ae89db1461043b5780638910dedf146104635780638db3bd611461048d576101c1565b8063442f817711610163578063636bfbab1161013d578063636bfbab1461038357806366b7de1f146103ad578063681fae67146103d7578063738dc4cf146103ff576101c1565b8063442f817714610309578063567e98f91461033157806358ba2bd21461035b576101c1565b80632105fa571161019f5780632105fa571461025357806322a273101461028f5780632e1a7d4d146102b7578063403460f2146102df576101c1565b8063074ef7af146101c55780631249e91d146101ef5780631dc7f6871461022b575b5f80fd5b3480156101d0575f80fd5b506101d96106e6565b6040516101e6919061153e565b60405180910390f35b3480156101fa575f80fd5b5061021560048036038101906102109190611592565b6106ec565b604051610222919061153e565b60405180910390f35b348015610236575f80fd5b50610251600480360381019061024c9190611592565b610705565b005b34801561025e575f80fd5b5061027960048036038101906102749190611592565b61079e565b60405161028691906115fc565b60405180910390f35b34801561029a575f80fd5b506102b560048036038101906102b09190611592565b6107d9565b005b3480156102c2575f80fd5b506102dd60048036038101906102d89190611592565b610872565b005b3480156102ea575f80fd5b506102f3610a3a565b604051610300919061153e565b60405180910390f35b348015610314575f80fd5b5061032f600480360381019061032a9190611592565b610a40565b005b34801561033c575f80fd5b50610345610ad9565b604051610352919061153e565b60405180910390f35b348015610366575f80fd5b50610381600480360381019061037c9190611765565b610adf565b005b34801561038e575f80fd5b50610397610bbe565b6040516103a4919061153e565b60405180910390f35b3480156103b8575f80fd5b506103c1610bc4565b6040516103ce919061153e565b60405180910390f35b3480156103e2575f80fd5b506103fd60048036038101906103f89190611592565b610bca565b005b34801561040a575f80fd5b5061042560048036038101906104209190611592565b610c63565b604051610432919061153e565b60405180910390f35b348015610446575f80fd5b50610461600480360381019061045c9190611592565b610c7c565b005b34801561046e575f80fd5b50610477610d15565b6040516104849190611863565b60405180910390f35b348015610498575f80fd5b506104b360048036038101906104ae91906118ad565b610da0565b6040516104c0919061153e565b60405180910390f35b3480156104d4575f80fd5b506104ef60048036038101906104ea91906118ad565b610e00565b6040516104fc919061153e565b60405180910390f35b348015610510575f80fd5b50610519610e48565b604051610526919061153e565b60405180910390f35b34801561053a575f80fd5b5061055560048036038101906105509190611765565b610e4e565b005b348015610562575f80fd5b5061057d600480360381019061057891906118ad565b610f2d565b60405161058d94939291906118f2565b60405180910390f35b3480156105a1575f80fd5b506105aa610f64565b6040516105b791906115fc565b60405180910390f35b3480156105cb575f80fd5b506105d4610f89565b6040516105e1919061153e565b60405180910390f35b6105f2610f8f565b005b3480156105ff575f80fd5b5061061a600480360381019061061591906118ad565b611192565b604051610627919061153e565b60405180910390f35b34801561063b575f80fd5b5061065660048036038101906106519190611592565b6111d9565b005b348015610663575f80fd5b5061067e60048036038101906106799190611592565b611300565b005b34801561068b575f80fd5b50610694611399565b6040516106a1919061153e565b60405180910390f35b3480156106b5575f80fd5b506106d060048036038101906106cb91906118ad565b61139f565b6040516106dd919061153e565b60405180910390f35b60035481565b600f81600581106106fb575f80fd5b015f915090505481565b3373ffffffffffffffffffffffffffffffffffffffff1660145f9054906101000a900473ffffffffffffffffffffffffffffffffffffffff1673ffffffffffffffffffffffffffffffffffffffff1614610794576040517f08c379a000000000000000000000000000000000000000000000000000000000815260040161078b906119b5565b60405180910390fd5b8060088190555050565b600181815481106107ad575f80fd5b905f5260205f20015f915054906101000a900473ffffffffffffffffffffffffffffffffffffffff1681565b3373ffffffffffffffffffffffffffffffffffffffff1660145f9054906101000a900473ffffffffffffffffffffffffffffffffffffffff1673ffffffffffffffffffffffffffffffffffffffff1614610868576040517f08c379a000000000000000000000000000000000000000000000000000000000815260040161085f906119b5565b60405180910390fd5b8060038190555050565b5f81116108b4576040517f08c379a00000000000000000000000000000000000000000000000000000000081526004016108ab90611a43565b60405180910390fd5b5f805f3373ffffffffffffffffffffffffffffffffffffffff1673ffffffffffffffffffffffffffffffffffffffff1681526020019081526020015f20905081815f01541015610939576040517f08c379a000000000000000000000000000000000000000000000000000000000815260040161093090611aab565b60405180910390fd5b6109423361140d565b6008548160010154426109559190611af6565b1015610988575f60646009548461096c9190611b29565b6109769190611b97565b905080836109849190611af6565b9250505b81815f015f82825461099a9190611af6565b925050819055508160025f8282546109b29190611af6565b925050819055503373ffffffffffffffffffffffffffffffffffffffff166108fc8390811502906040515f60405180830381858888f193505050501580156109fc573d5f803e3d5ffd5b507f7084f5476618d8e60b11ef0d7d3f06914655adb8793e28ff7f018d4c76d505d53383604051610a2e929190611bc7565b60405180910390a15050565b60055481565b3373ffffffffffffffffffffffffffffffffffffffff1660145f9054906101000a900473ffffffffffffffffffffffffffffffffffffffff1673ffffffffffffffffffffffffffffffffffffffff1614610acf576040517f08c379a0000000000000000000000000000000000000000000000000000000008152600401610ac6906119b5565b60405180910390fd5b8060068190555050565b60025481565b3373ffffffffffffffffffffffffffffffffffffffff1660145f9054906101000a900473ffffffffffffffffffffffffffffffffffffffff1673ffffffffffffffffffffffffffffffffffffffff1614610b6e576040517f08c379a0000000000000000000000000000000000000000000000000000000008152600401610b65906119b5565b60405180910390fd5b5f5b8151811015610bba57818181518110610b8c57610b8b611bee565b5b6020026020010151600a8260058110610ba857610ba7611bee565b5b01819055508080600101915050610b70565b5050565b60075481565b60085481565b3373ffffffffffffffffffffffffffffffffffffffff1660145f9054906101000a900473ffffffffffffffffffffffffffffffffffffffff1673ffffffffffffffffffffffffffffffffffffffff1614610c59576040517f08c379a0000000000000000000000000000000000000000000000000000000008152600401610c50906119b5565b60405180910390fd5b8060058190555050565b600a8160058110610c72575f80fd5b015f915090505481565b3373ffffffffffffffffffffffffffffffffffffffff1660145f9054906101000a900473ffffffffffffffffffffffffffffffffffffffff1673ffffffffffffffffffffffffffffffffffffffff1614610d0b576040517f08c379a0000000000000000000000000000000000000000000000000000000008152600401610d02906119b5565b60405180910390fd5b8060098190555050565b60606001805480602002602001604051908101604052809291908181526020018280548015610d9657602002820191905f5260205f20905b815f9054906101000a900473ffffffffffffffffffffffffffffffffffffffff1673ffffffffffffffffffffffffffffffffffffffff1681526020019060010190808311610d4d575b5050505050905090565b5f610e105f808473ffffffffffffffffffffffffffffffffffffffff1673ffffffffffffffffffffffffffffffffffffffff1681526020019081526020015f206001015442610def9190611af6565b610df99190611b97565b9050919050565b5f805f8373ffffffffffffffffffffffffffffffffffffffff1673ffffffffffffffffffffffffffffffffffffffff1681526020019081526020015f20600201549050919050565b60095481565b3373ffffffffffffffffffffffffffffffffffffffff1660145f9054906101000a900473ffffffffffffffffffffffffffffffffffffffff1673ffffffffffffffffffffffffffffffffffffffff1614610edd576040517f08c379a0000000000000000000000000000000000000000000000000000000008152600401610ed4906119b5565b60405180910390fd5b5f5b8151811015610f2957818181518110610efb57610efa611bee565b5b6020026020010151600f8260058110610f1757610f16611bee565b5b01819055508080600101915050610edf565b5050565b5f602052805f5260405f205f91509050805f015490806001015490806002015490806003015f9054906101000a900460ff16905084565b60145f9054906101000a900473ffffffffffffffffffffffffffffffffffffffff1681565b60065481565b5f3411610fd1576040517f08c379a0000000000000000000000000000000000000000000000000000000008152600401610fc890611c65565b60405180910390fd5b5f805f3373ffffffffffffffffffffffffffffffffffffffff1673ffffffffffffffffffffffffffffffffffffffff1681526020019081526020015f2090505f815f01541115611025576110243361140d565b5b600354815f0154346110379190611c83565b101580156110485750600554600454105b801561106757505f1515816003015f9054906101000a900460ff161515145b1561111c57600654816002015f8282546110819190611c83565b9250508190555060045f81548092919061109a90611cb6565b9190505550600133908060018154018082558091505060019003905f5260205f20015f9091909190916101000a81548173ffffffffffffffffffffffffffffffffffffffff021916908373ffffffffffffffffffffffffffffffffffffffff1602179055506001816003015f6101000a81548160ff0219169083151502179055505b34815f015f82825461112e9190611c83565b925050819055503460025f8282546111469190611c83565b925050819055504281600101819055507f2da466a7b24304f47e87fa2e1e5a81b9831ce54fec19055ce277ca2f39ba42c43334604051611187929190611bc7565b60405180910390a150565b5f805f8373ffffffffffffffffffffffffffffffffffffffff1673ffffffffffffffffffffffffffffffffffffffff1681526020019081526020015f205f01549050919050565b3373ffffffffffffffffffffffffffffffffffffffff1660145f9054906101000a900473ffffffffffffffffffffffffffffffffffffffff1673ffffffffffffffffffffffffffffffffffffffff1614611268576040517f08c379a000000000000000000000000000000000000000000000000000000000815260040161125f906119b5565b60405180910390fd5b3373ffffffffffffffffffffffffffffffffffffffff166108fc8290811502906040515f60405180830381858888f193505050501580156112ab573d5f803e3d5ffd5b508060025f8282546112bd9190611af6565b925050819055507f7084f5476618d8e60b11ef0d7d3f06914655adb8793e28ff7f018d4c76d505d533826040516112f5929190611bc7565b60405180910390a150565b3373ffffffffffffffffffffffffffffffffffffffff1660145f9054906101000a900473ffffffffffffffffffffffffffffffffffffffff1673ffffffffffffffffffffffffffffffffffffffff161461138f576040517f08c379a0000000000000000000000000000000000000000000000000000000008152600401611386906119b5565b60405180910390fd5b8060078190555050565b60045481565b5f805f808473ffffffffffffffffffffffffffffffffffffffff1673ffffffffffffffffffffffffffffffffffffffff1681526020019081526020015f2090505f6113ec825f01546114c9565b9050600a816005811061140257611401611bee565b5b015492505050919050565b5f805f8373ffffffffffffffffffffffffffffffffffffffff1673ffffffffffffffffffffffffffffffffffffffff1681526020019081526020015f2090505f610e108260010154426114609190611af6565b61146a9190611b97565b90505f611479835f01546114c9565b90505f600a82600581106114905761148f611bee565b5b01548361149d9190611b29565b905080846002015f8282546114b29190611c83565b925050819055504284600101819055505050505050565b5f80600160056114d99190611af6565b90505b5f81111561151c57600f81600581106114f8576114f7611bee565b5b015483106115095780915050611521565b808061151490611cfd565b9150506114dc565b505f90505b919050565b5f819050919050565b61153881611526565b82525050565b5f6020820190506115515f83018461152f565b92915050565b5f604051905090565b5f80fd5b5f80fd5b61157181611526565b811461157b575f80fd5b50565b5f8135905061158c81611568565b92915050565b5f602082840312156115a7576115a6611560565b5b5f6115b48482850161157e565b91505092915050565b5f73ffffffffffffffffffffffffffffffffffffffff82169050919050565b5f6115e6826115bd565b9050919050565b6115f6816115dc565b82525050565b5f60208201905061160f5f8301846115ed565b92915050565b5f80fd5b5f601f19601f8301169050919050565b7f4e487b71000000000000000000000000000000000000000000000000000000005f52604160045260245ffd5b61165f82611619565b810181811067ffffffffffffffff8211171561167e5761167d611629565b5b80604052505050565b5f611690611557565b905061169c8282611656565b919050565b5f67ffffffffffffffff8211156116bb576116ba611629565b5b602082029050602081019050919050565b5f80fd5b5f6116e26116dd846116a1565b611687565b90508083825260208201905060208402830185811115611705576117046116cc565b5b835b8181101561172e578061171a888261157e565b845260208401935050602081019050611707565b5050509392505050565b5f82601f83011261174c5761174b611615565b5b813561175c8482602086016116d0565b91505092915050565b5f6020828403121561177a57611779611560565b5b5f82013567ffffffffffffffff81111561179757611796611564565b5b6117a384828501611738565b91505092915050565b5f81519050919050565b5f82825260208201905092915050565b5f819050602082019050919050565b6117de816115dc565b82525050565b5f6117ef83836117d5565b60208301905092915050565b5f602082019050919050565b5f611811826117ac565b61181b81856117b6565b9350611826836117c6565b805f5b8381101561185657815161183d88826117e4565b9750611848836117fb565b925050600181019050611829565b5085935050505092915050565b5f6020820190508181035f83015261187b8184611807565b905092915050565b61188c816115dc565b8114611896575f80fd5b50565b5f813590506118a781611883565b92915050565b5f602082840312156118c2576118c1611560565b5b5f6118cf84828501611899565b91505092915050565b5f8115159050919050565b6118ec816118d8565b82525050565b5f6080820190506119055f83018761152f565b611912602083018661152f565b61191f604083018561152f565b61192c60608301846118e3565b95945050505050565b5f82825260208201905092915050565b7f4f776e65727368697020417373657274696f6e3a2043616c6c6572206f6620745f8201527f68652066756e6374696f6e206973206e6f7420746865206f776e65722e000000602082015250565b5f61199f603d83611935565b91506119aa82611945565b604082019050919050565b5f6020820190508181035f8301526119cc81611993565b9050919050565b7f5769746864726177616c20616d6f756e74206d757374206265206772656174655f8201527f72207468616e2030000000000000000000000000000000000000000000000000602082015250565b5f611a2d602883611935565b9150611a38826119d3565b604082019050919050565b5f6020820190508181035f830152611a5a81611a21565b9050919050565b7f496e73756666696369656e742062616c616e63650000000000000000000000005f82015250565b5f611a95601483611935565b9150611aa082611a61565b602082019050919050565b5f6020820190508181035f830152611ac281611a89565b9050919050565b7f4e487b71000000000000000000000000000000000000000000000000000000005f52601160045260245ffd5b5f611b0082611526565b9150611b0b83611526565b9250828203905081811115611b2357611b22611ac9565b5b92915050565b5f611b3382611526565b9150611b3e83611526565b9250828202611b4c81611526565b91508282048414831517611b6357611b62611ac9565b5b5092915050565b7f4e487b71000000000000000000000000000000000000000000000000000000005f52601260045260245ffd5b5f611ba182611526565b9150611bac83611526565b925082611bbc57611bbb611b6a565b5b828204905092915050565b5f604082019050611bda5f8301856115ed565b611be7602083018461152f565b9392505050565b7f4e487b71000000000000000000000000000000000000000000000000000000005f52603260045260245ffd5b7f4465706f736974206d7573742062652067726561746572207468616e203000005f82015250565b5f611c4f601e83611935565b9150611c5a82611c1b565b602082019050919050565b5f6020820190508181035f830152611c7c81611c43565b9050919050565b5f611c8d82611526565b9150611c9883611526565b9250828201905080821115611cb057611caf611ac9565b5b92915050565b5f611cc082611526565b91507fffffffffffffffffffffffffffffffffffffffffffffffffffffffffffffffff8203611cf257611cf1611ac9565b5b600182019050919050565b5f611d0782611526565b91505f8203611d1957611d18611ac9565b5b60018203905091905056fea264697066735822122051f36d83d311cb02ee6de1a30988f7e3ef0c9f92ccf1686c84faa82adca52dd764736f6c634300081a0033",
			"opcodes": "PUSH1 0x80 PUSH1 0x40 MSTORE PUSH0 PUSH1 0x2 SSTORE PUSH7 0x11C37937E08000 PUSH1 0x3 SSTORE PUSH0 PUSH1 0x4 SSTORE PUSH2 0x1F4 PUSH1 0x5 SSTORE PUSH2 0x2710 PUSH1 0x6 SSTORE PUSH7 0x11C37937E08000 PUSH1 0x7 SSTORE PUSH3 0x76A700 PUSH1 0x8 SSTORE PUSH1 0x21 PUSH1 0x9 SSTORE PUSH1 0x40 MLOAD DUP1 PUSH1 0xA0 ADD PUSH1 0x40 MSTORE DUP1 PUSH1 0x1 PUSH2 0xFFFF AND DUP2 MSTORE PUSH1 0x20 ADD PUSH2 0x12C PUSH2 0xFFFF AND DUP2 MSTORE PUSH1 0x20 ADD PUSH2 0xBB8 PUSH2 0xFFFF AND DUP2 MSTORE PUSH1 0x20 ADD PUSH2 0x4650 PUSH2 0xFFFF AND DUP2 MSTORE PUSH1 0x20 ADD PUSH2 0xC350 PUSH2 0xFFFF AND DUP2 MSTORE POP PUSH1 0xA SWAP1 PUSH1 0x5 PUSH2 0x8E SWAP3 SWAP2 SWAP1 PUSH2 0x167 JUMP JUMPDEST POP PUSH1 0x40 MLOAD DUP1 PUSH1 0xA0 ADD PUSH1 0x40 MSTORE DUP1 PUSH0 PUSH8 0xFFFFFFFFFFFFFFFF AND DUP2 MSTORE PUSH1 0x20 ADD PUSH7 0x11C37937E08000 PUSH8 0xFFFFFFFFFFFFFFFF AND DUP2 MSTORE PUSH1 0x20 ADD PUSH7 0x2386F26FC10000 PUSH8 0xFFFFFFFFFFFFFFFF AND DUP2 MSTORE PUSH1 0x20 ADD PUSH7 0xB1A2BC2EC50000 PUSH8 0xFFFFFFFFFFFFFFFF AND DUP2 MSTORE PUSH1 0x20 ADD PUSH8 0x16345785D8A0000 PUSH8 0xFFFFFFFFFFFFFFFF AND DUP2 MSTORE POP PUSH1 0xF SWAP1 PUSH1 0x5 PUSH2 0x115 SWAP3 SWAP2 SWAP1 PUSH2 0x1AD JUMP JUMPDEST POP CALLVALUE DUP1 ISZERO PUSH2 0x121 JUMPI PUSH0 DUP1 REVERT JUMPDEST POP CALLER PUSH1 0x14 PUSH0 PUSH2 0x100 EXP DUP2 SLOAD DUP2 PUSH20 0xFFFFFFFFFFFFFFFFFFFFFFFFFFFFFFFFFFFFFFFF MUL NOT AND SWAP1 DUP4 PUSH20 0xFFFFFFFFFFFFFFFFFFFFFFFFFFFFFFFFFFFFFFFF AND MUL OR SWAP1 SSTORE POP PUSH2 0x214 JUMP JUMPDEST DUP3 PUSH1 0x5 DUP2 ADD SWAP3 DUP3 ISZERO PUSH2 0x19C JUMPI SWAP2 PUSH1 0x20 MUL DUP3 ADD JUMPDEST DUP3 DUP2 GT ISZERO PUSH2 0x19B JUMPI DUP3 MLOAD DUP3 SWAP1 PUSH2 0xFFFF AND SWAP1 SSTORE SWAP2 PUSH1 0x20 ADD SWAP2 SWAP1 PUSH1 0x1 ADD SWAP1 PUSH2 0x17A JUMP JUMPDEST JUMPDEST POP SWAP1 POP PUSH2 0x1A9 SWAP2 SWAP1 PUSH2 0x1F9 JUMP JUMPDEST POP SWAP1 JUMP JUMPDEST DUP3 PUSH1 0x5 DUP2 ADD SWAP3 DUP3 ISZERO PUSH2 0x1E8 JUMPI SWAP2 PUSH1 0x20 MUL DUP3 ADD JUMPDEST DUP3 DUP2 GT ISZERO PUSH2 0x1E7 JUMPI DUP3 MLOAD DUP3 SWAP1 PUSH8 0xFFFFFFFFFFFFFFFF AND SWAP1 SSTORE SWAP2 PUSH1 0x20 ADD SWAP2 SWAP1 PUSH1 0x1 ADD SWAP1 PUSH2 0x1C0 JUMP JUMPDEST JUMPDEST POP SWAP1 POP PUSH2 0x1F5 SWAP2 SWAP1 PUSH2 0x1F9 JUMP JUMPDEST POP SWAP1 JUMP JUMPDEST JUMPDEST DUP1 DUP3 GT ISZERO PUSH2 0x210 JUMPI PUSH0 DUP2 PUSH0 SWAP1 SSTORE POP PUSH1 0x1 ADD PUSH2 0x1FA JUMP JUMPDEST POP SWAP1 JUMP JUMPDEST PUSH2 0x1D5A DUP1 PUSH2 0x221 PUSH0 CODECOPY PUSH0 RETURN INVALID PUSH1 0x80 PUSH1 0x40 MSTORE PUSH1 0x4 CALLDATASIZE LT PUSH2 0x1C1 JUMPI PUSH0 CALLDATALOAD PUSH1 0xE0 SHR DUP1 PUSH4 0x87AE89DB GT PUSH2 0xF6 JUMPI DUP1 PUSH4 0xB2BDFA7B GT PUSH2 0x94 JUMPI DUP1 PUSH4 0xD77836CE GT PUSH2 0x63 JUMPI DUP1 PUSH4 0xD77836CE EQ PUSH2 0x630 JUMPI DUP1 PUSH4 0xD9F7CEF5 EQ PUSH2 0x658 JUMPI DUP1 PUSH4 0xF9436784 EQ PUSH2 0x680 JUMPI DUP1 PUSH4 0xFAAD525C EQ PUSH2 0x6AA JUMPI PUSH2 0x1C1 JUMP JUMPDEST DUP1 PUSH4 0xB2BDFA7B EQ PUSH2 0x596 JUMPI DUP1 PUSH4 0xBF555B89 EQ PUSH2 0x5C0 JUMPI DUP1 PUSH4 0xD0E30DB0 EQ PUSH2 0x5EA JUMPI DUP1 PUSH4 0xD2C11653 EQ PUSH2 0x5F4 JUMPI PUSH2 0x1C1 JUMP JUMPDEST DUP1 PUSH4 0x9173A675 GT PUSH2 0xD0 JUMPI DUP1 PUSH4 0x9173A675 EQ PUSH2 0x4C9 JUMPI DUP1 PUSH4 0xA2468C19 EQ PUSH2 0x505 JUMPI DUP1 PUSH4 0xA3CCD478 EQ PUSH2 0x52F JUMPI DUP1 PUSH4 0xA87430BA EQ PUSH2 0x557 JUMPI PUSH2 0x1C1 JUMP JUMPDEST DUP1 PUSH4 0x87AE89DB EQ PUSH2 0x43B JUMPI DUP1 PUSH4 0x8910DEDF EQ PUSH2 0x463 JUMPI DUP1 PUSH4 0x8DB3BD61 EQ PUSH2 0x48D JUMPI PUSH2 0x1C1 JUMP JUMPDEST DUP1 PUSH4 0x442F8177 GT PUSH2 0x163 JUMPI DUP1 PUSH4 0x636BFBAB GT PUSH2 0x13D JUMPI DUP1 PUSH4 0x636BFBAB EQ PUSH2 0x383 JUMPI DUP1 PUSH4 0x66B7DE1F EQ PUSH2 0x3AD JUMPI DUP1 PUSH4 0x681FAE67 EQ PUSH2 0x3D7 JUMPI DUP1 PUSH4 0x738DC4CF EQ PUSH2 0x3FF JUMPI PUSH2 0x1C1 JUMP JUMPDEST DUP1 PUSH4 0x442F8177 EQ PUSH2 0x309 JUMPI DUP1 PUSH4 0x567E98F9 EQ PUSH2 0x331 JUMPI DUP1 PUSH4 0x58BA2BD2 EQ PUSH2 0x35B JUMPI PUSH2 0x1C1 JUMP JUMPDEST DUP1 PUSH4 0x2105FA57 GT PUSH2 0x19F JUMPI DUP1 PUSH4 0x2105FA57 EQ PUSH2 0x253 JUMPI DUP1 PUSH4 0x22A27310 EQ PUSH2 0x28F JUMPI DUP1 PUSH4 0x2E1A7D4D EQ PUSH2 0x2B7 JUMPI DUP1 PUSH4 0x403460F2 EQ PUSH2 0x2DF JUMPI PUSH2 0x1C1 JUMP JUMPDEST DUP1 PUSH4 0x74EF7AF EQ PUSH2 0x1C5 JUMPI DUP1 PUSH4 0x1249E91D EQ PUSH2 0x1EF JUMPI DUP1 PUSH4 0x1DC7F687 EQ PUSH2 0x22B JUMPI JUMPDEST PUSH0 DUP1 REVERT JUMPDEST CALLVALUE DUP1 ISZERO PUSH2 0x1D0 JUMPI PUSH0 DUP1 REVERT JUMPDEST POP PUSH2 0x1D9 PUSH2 0x6E6 JUMP JUMPDEST PUSH1 0x40 MLOAD PUSH2 0x1E6 SWAP2 SWAP1 PUSH2 0x153E JUMP JUMPDEST PUSH1 0x40 MLOAD DUP1 SWAP2 SUB SWAP1 RETURN JUMPDEST CALLVALUE DUP1 ISZERO PUSH2 0x1FA JUMPI PUSH0 DUP1 REVERT JUMPDEST POP PUSH2 0x215 PUSH1 0x4 DUP1 CALLDATASIZE SUB DUP2 ADD SWAP1 PUSH2 0x210 SWAP2 SWAP1 PUSH2 0x1592 JUMP JUMPDEST PUSH2 0x6EC JUMP JUMPDEST PUSH1 0x40 MLOAD PUSH2 0x222 SWAP2 SWAP1 PUSH2 0x153E JUMP JUMPDEST PUSH1 0x40 MLOAD DUP1 SWAP2 SUB SWAP1 RETURN JUMPDEST CALLVALUE DUP1 ISZERO PUSH2 0x236 JUMPI PUSH0 DUP1 REVERT JUMPDEST POP PUSH2 0x251 PUSH1 0x4 DUP1 CALLDATASIZE SUB DUP2 ADD SWAP1 PUSH2 0x24C SWAP2 SWAP1 PUSH2 0x1592 JUMP JUMPDEST PUSH2 0x705 JUMP JUMPDEST STOP JUMPDEST CALLVALUE DUP1 ISZERO PUSH2 0x25E JUMPI PUSH0 DUP1 REVERT JUMPDEST POP PUSH2 0x279 PUSH1 0x4 DUP1 CALLDATASIZE SUB DUP2 ADD SWAP1 PUSH2 0x274 SWAP2 SWAP1 PUSH2 0x1592 JUMP JUMPDEST PUSH2 0x79E JUMP JUMPDEST PUSH1 0x40 MLOAD PUSH2 0x286 SWAP2 SWAP1 PUSH2 0x15FC JUMP JUMPDEST PUSH1 0x40 MLOAD DUP1 SWAP2 SUB SWAP1 RETURN JUMPDEST CALLVALUE DUP1 ISZERO PUSH2 0x29A JUMPI PUSH0 DUP1 REVERT JUMPDEST POP PUSH2 0x2B5 PUSH1 0x4 DUP1 CALLDATASIZE SUB DUP2 ADD SWAP1 PUSH2 0x2B0 SWAP2 SWAP1 PUSH2 0x1592 JUMP JUMPDEST PUSH2 0x7D9 JUMP JUMPDEST STOP JUMPDEST CALLVALUE DUP1 ISZERO PUSH2 0x2C2 JUMPI PUSH0 DUP1 REVERT JUMPDEST POP PUSH2 0x2DD PUSH1 0x4 DUP1 CALLDATASIZE SUB DUP2 ADD SWAP1 PUSH2 0x2D8 SWAP2 SWAP1 PUSH2 0x1592 JUMP JUMPDEST PUSH2 0x872 JUMP JUMPDEST STOP JUMPDEST CALLVALUE DUP1 ISZERO PUSH2 0x2EA JUMPI PUSH0 DUP1 REVERT JUMPDEST POP PUSH2 0x2F3 PUSH2 0xA3A JUMP JUMPDEST PUSH1 0x40 MLOAD PUSH2 0x300 SWAP2 SWAP1 PUSH2 0x153E JUMP JUMPDEST PUSH1 0x40 MLOAD DUP1 SWAP2 SUB SWAP1 RETURN JUMPDEST CALLVALUE DUP1 ISZERO PUSH2 0x314 JUMPI PUSH0 DUP1 REVERT JUMPDEST POP PUSH2 0x32F PUSH1 0x4 DUP1 CALLDATASIZE SUB DUP2 ADD SWAP1 PUSH2 0x32A SWAP2 SWAP1 PUSH2 0x1592 JUMP JUMPDEST PUSH2 0xA40 JUMP JUMPDEST STOP JUMPDEST CALLVALUE DUP1 ISZERO PUSH2 0x33C JUMPI PUSH0 DUP1 REVERT JUMPDEST POP PUSH2 0x345 PUSH2 0xAD9 JUMP JUMPDEST PUSH1 0x40 MLOAD PUSH2 0x352 SWAP2 SWAP1 PUSH2 0x153E JUMP JUMPDEST PUSH1 0x40 MLOAD DUP1 SWAP2 SUB SWAP1 RETURN JUMPDEST CALLVALUE DUP1 ISZERO PUSH2 0x366 JUMPI PUSH0 DUP1 REVERT JUMPDEST POP PUSH2 0x381 PUSH1 0x4 DUP1 CALLDATASIZE SUB DUP2 ADD SWAP1 PUSH2 0x37C SWAP2 SWAP1 PUSH2 0x1765 JUMP JUMPDEST PUSH2 0xADF JUMP JUMPDEST STOP JUMPDEST CALLVALUE DUP1 ISZERO PUSH2 0x38E JUMPI PUSH0 DUP1 REVERT JUMPDEST POP PUSH2 0x397 PUSH2 0xBBE JUMP JUMPDEST PUSH1 0x40 MLOAD PUSH2 0x3A4 SWAP2 SWAP1 PUSH2 0x153E JUMP JUMPDEST PUSH1 0x40 MLOAD DUP1 SWAP2 SUB SWAP1 RETURN JUMPDEST CALLVALUE DUP1 ISZERO PUSH2 0x3B8 JUMPI PUSH0 DUP1 REVERT JUMPDEST POP PUSH2 0x3C1 PUSH2 0xBC4 JUMP JUMPDEST PUSH1 0x40 MLOAD PUSH2 0x3CE SWAP2 SWAP1 PUSH2 0x153E JUMP JUMPDEST PUSH1 0x40 MLOAD DUP1 SWAP2 SUB SWAP1 RETURN JUMPDEST CALLVALUE DUP1 ISZERO PUSH2 0x3E2 JUMPI PUSH0 DUP1 REVERT JUMPDEST POP PUSH2 0x3FD PUSH1 0x4 DUP1 CALLDATASIZE SUB DUP2 ADD SWAP1 PUSH2 0x3F8 SWAP2 SWAP1 PUSH2 0x1592 JUMP JUMPDEST PUSH2 0xBCA JUMP JUMPDEST STOP JUMPDEST CALLVALUE DUP1 ISZERO PUSH2 0x40A JUMPI PUSH0 DUP1 REVERT JUMPDEST POP PUSH2 0x425 PUSH1 0x4 DUP1 CALLDATASIZE SUB DUP2 ADD SWAP1 PUSH2 0x420 SWAP2 SWAP1 PUSH2 0x1592 JUMP JUMPDEST PUSH2 0xC63 JUMP JUMPDEST PUSH1 0x40 MLOAD PUSH2 0x432 SWAP2 SWAP1 PUSH2 0x153E JUMP JUMPDEST PUSH1 0x40 MLOAD DUP1 SWAP2 SUB SWAP1 RETURN JUMPDEST CALLVALUE DUP1 ISZERO PUSH2 0x446 JUMPI PUSH0 DUP1 REVERT JUMPDEST POP PUSH2 0x461 PUSH1 0x4 DUP1 CALLDATASIZE SUB DUP2 ADD SWAP1 PUSH2 0x45C SWAP2 SWAP1 PUSH2 0x1592 JUMP JUMPDEST PUSH2 0xC7C JUMP JUMPDEST STOP JUMPDEST CALLVALUE DUP1 ISZERO PUSH2 0x46E JUMPI PUSH0 DUP1 REVERT JUMPDEST POP PUSH2 0x477 PUSH2 0xD15 JUMP JUMPDEST PUSH1 0x40 MLOAD PUSH2 0x484 SWAP2 SWAP1 PUSH2 0x1863 JUMP JUMPDEST PUSH1 0x40 MLOAD DUP1 SWAP2 SUB SWAP1 RETURN JUMPDEST CALLVALUE DUP1 ISZERO PUSH2 0x498 JUMPI PUSH0 DUP1 REVERT JUMPDEST POP PUSH2 0x4B3 PUSH1 0x4 DUP1 CALLDATASIZE SUB DUP2 ADD SWAP1 PUSH2 0x4AE SWAP2 SWAP1 PUSH2 0x18AD JUMP JUMPDEST PUSH2 0xDA0 JUMP JUMPDEST PUSH1 0x40 MLOAD PUSH2 0x4C0 SWAP2 SWAP1 PUSH2 0x153E JUMP JUMPDEST PUSH1 0x40 MLOAD DUP1 SWAP2 SUB SWAP1 RETURN JUMPDEST CALLVALUE DUP1 ISZERO PUSH2 0x4D4 JUMPI PUSH0 DUP1 REVERT JUMPDEST POP PUSH2 0x4EF PUSH1 0x4 DUP1 CALLDATASIZE SUB DUP2 ADD SWAP1 PUSH2 0x4EA SWAP2 SWAP1 PUSH2 0x18AD JUMP JUMPDEST PUSH2 0xE00 JUMP JUMPDEST PUSH1 0x40 MLOAD PUSH2 0x4FC SWAP2 SWAP1 PUSH2 0x153E JUMP JUMPDEST PUSH1 0x40 MLOAD DUP1 SWAP2 SUB SWAP1 RETURN JUMPDEST CALLVALUE DUP1 ISZERO PUSH2 0x510 JUMPI PUSH0 DUP1 REVERT JUMPDEST POP PUSH2 0x519 PUSH2 0xE48 JUMP JUMPDEST PUSH1 0x40 MLOAD PUSH2 0x526 SWAP2 SWAP1 PUSH2 0x153E JUMP JUMPDEST PUSH1 0x40 MLOAD DUP1 SWAP2 SUB SWAP1 RETURN JUMPDEST CALLVALUE DUP1 ISZERO PUSH2 0x53A JUMPI PUSH0 DUP1 REVERT JUMPDEST POP PUSH2 0x555 PUSH1 0x4 DUP1 CALLDATASIZE SUB DUP2 ADD SWAP1 PUSH2 0x550 SWAP2 SWAP1 PUSH2 0x1765 JUMP JUMPDEST PUSH2 0xE4E JUMP JUMPDEST STOP JUMPDEST CALLVALUE DUP1 ISZERO PUSH2 0x562 JUMPI PUSH0 DUP1 REVERT JUMPDEST POP PUSH2 0x57D PUSH1 0x4 DUP1 CALLDATASIZE SUB DUP2 ADD SWAP1 PUSH2 0x578 SWAP2 SWAP1 PUSH2 0x18AD JUMP JUMPDEST PUSH2 0xF2D JUMP JUMPDEST PUSH1 0x40 MLOAD PUSH2 0x58D SWAP5 SWAP4 SWAP3 SWAP2 SWAP1 PUSH2 0x18F2 JUMP JUMPDEST PUSH1 0x40 MLOAD DUP1 SWAP2 SUB SWAP1 RETURN JUMPDEST CALLVALUE DUP1 ISZERO PUSH2 0x5A1 JUMPI PUSH0 DUP1 REVERT JUMPDEST POP PUSH2 0x5AA PUSH2 0xF64 JUMP JUMPDEST PUSH1 0x40 MLOAD PUSH2 0x5B7 SWAP2 SWAP1 PUSH2 0x15FC JUMP JUMPDEST PUSH1 0x40 MLOAD DUP1 SWAP2 SUB SWAP1 RETURN JUMPDEST CALLVALUE DUP1 ISZERO PUSH2 0x5CB JUMPI PUSH0 DUP1 REVERT JUMPDEST POP PUSH2 0x5D4 PUSH2 0xF89 JUMP JUMPDEST PUSH1 0x40 MLOAD PUSH2 0x5E1 SWAP2 SWAP1 PUSH2 0x153E JUMP JUMPDEST PUSH1 0x40 MLOAD DUP1 SWAP2 SUB SWAP1 RETURN JUMPDEST PUSH2 0x5F2 PUSH2 0xF8F JUMP JUMPDEST STOP JUMPDEST CALLVALUE DUP1 ISZERO PUSH2 0x5FF JUMPI PUSH0 DUP1 REVERT JUMPDEST POP PUSH2 0x61A PUSH1 0x4 DUP1 CALLDATASIZE SUB DUP2 ADD SWAP1 PUSH2 0x615 SWAP2 SWAP1 PUSH2 0x18AD JUMP JUMPDEST PUSH2 0x1192 JUMP JUMPDEST PUSH1 0x40 MLOAD PUSH2 0x627 SWAP2 SWAP1 PUSH2 0x153E JUMP JUMPDEST PUSH1 0x40 MLOAD DUP1 SWAP2 SUB SWAP1 RETURN JUMPDEST CALLVALUE DUP1 ISZERO PUSH2 0x63B JUMPI PUSH0 DUP1 REVERT JUMPDEST POP PUSH2 0x656 PUSH1 0x4 DUP1 CALLDATASIZE SUB DUP2 ADD SWAP1 PUSH2 0x651 SWAP2 SWAP1 PUSH2 0x1592 JUMP JUMPDEST PUSH2 0x11D9 JUMP JUMPDEST STOP JUMPDEST CALLVALUE DUP1 ISZERO PUSH2 0x663 JUMPI PUSH0 DUP1 REVERT JUMPDEST POP PUSH2 0x67E PUSH1 0x4 DUP1 CALLDATASIZE SUB DUP2 ADD SWAP1 PUSH2 0x679 SWAP2 SWAP1 PUSH2 0x1592 JUMP JUMPDEST PUSH2 0x1300 JUMP JUMPDEST STOP JUMPDEST CALLVALUE DUP1 ISZERO PUSH2 0x68B JUMPI PUSH0 DUP1 REVERT JUMPDEST POP PUSH2 0x694 PUSH2 0x1399 JUMP JUMPDEST PUSH1 0x40 MLOAD PUSH2 0x6A1 SWAP2 SWAP1 PUSH2 0x153E JUMP JUMPDEST PUSH1 0x40 MLOAD DUP1 SWAP2 SUB SWAP1 RETURN JUMPDEST CALLVALUE DUP1 ISZERO PUSH2 0x6B5 JUMPI PUSH0 DUP1 REVERT JUMPDEST POP PUSH2 0x6D0 PUSH1 0x4 DUP1 CALLDATASIZE SUB DUP2 ADD SWAP1 PUSH2 0x6CB SWAP2 SWAP1 PUSH2 0x18AD JUMP JUMPDEST PUSH2 0x139F JUMP JUMPDEST PUSH1 0x40 MLOAD PUSH2 0x6DD SWAP2 SWAP1 PUSH2 0x153E JUMP JUMPDEST PUSH1 0x40 MLOAD DUP1 SWAP2 SUB SWAP1 RETURN JUMPDEST PUSH1 0x3 SLOAD DUP2 JUMP JUMPDEST PUSH1 0xF DUP2 PUSH1 0x5 DUP2 LT PUSH2 0x6FB JUMPI PUSH0 DUP1 REVERT JUMPDEST ADD PUSH0 SWAP2 POP SWAP1 POP SLOAD DUP2 JUMP JUMPDEST CALLER PUSH20 0xFFFFFFFFFFFFFFFFFFFFFFFFFFFFFFFFFFFFFFFF AND PUSH1 0x14 PUSH0 SWAP1 SLOAD SWAP1 PUSH2 0x100 EXP SWAP1 DIV PUSH20 0xFFFFFFFFFFFFFFFFFFFFFFFFFFFFFFFFFFFFFFFF AND PUSH20 0xFFFFFFFFFFFFFFFFFFFFFFFFFFFFFFFFFFFFFFFF AND EQ PUSH2 0x794 JUMPI PUSH1 0x40 MLOAD PUSH32 0x8C379A000000000000000000000000000000000000000000000000000000000 DUP2 MSTORE PUSH1 0x4 ADD PUSH2 0x78B SWAP1 PUSH2 0x19B5 JUMP JUMPDEST PUSH1 0x40 MLOAD DUP1 SWAP2 SUB SWAP1 REVERT JUMPDEST DUP1 PUSH1 0x8 DUP2 SWAP1 SSTORE POP POP JUMP JUMPDEST PUSH1 0x1 DUP2 DUP2 SLOAD DUP2 LT PUSH2 0x7AD JUMPI PUSH0 DUP1 REVERT JUMPDEST SWAP1 PUSH0 MSTORE PUSH1 0x20 PUSH0 KECCAK256 ADD PUSH0 SWAP2 POP SLOAD SWAP1 PUSH2 0x100 EXP SWAP1 DIV PUSH20 0xFFFFFFFFFFFFFFFFFFFFFFFFFFFFFFFFFFFFFFFF AND DUP2 JUMP JUMPDEST CALLER PUSH20 0xFFFFFFFFFFFFFFFFFFFFFFFFFFFFFFFFFFFFFFFF AND PUSH1 0x14 PUSH0 SWAP1 SLOAD SWAP1 PUSH2 0x100 EXP SWAP1 DIV PUSH20 0xFFFFFFFFFFFFFFFFFFFFFFFFFFFFFFFFFFFFFFFF AND PUSH20 0xFFFFFFFFFFFFFFFFFFFFFFFFFFFFFFFFFFFFFFFF AND EQ PUSH2 0x868 JUMPI PUSH1 0x40 MLOAD PUSH32 0x8C379A000000000000000000000000000000000000000000000000000000000 DUP2 MSTORE PUSH1 0x4 ADD PUSH2 0x85F SWAP1 PUSH2 0x19B5 JUMP JUMPDEST PUSH1 0x40 MLOAD DUP1 SWAP2 SUB SWAP1 REVERT JUMPDEST DUP1 PUSH1 0x3 DUP2 SWAP1 SSTORE POP POP JUMP JUMPDEST PUSH0 DUP2 GT PUSH2 0x8B4 JUMPI PUSH1 0x40 MLOAD PUSH32 0x8C379A000000000000000000000000000000000000000000000000000000000 DUP2 MSTORE PUSH1 0x4 ADD PUSH2 0x8AB SWAP1 PUSH2 0x1A43 JUMP JUMPDEST PUSH1 0x40 MLOAD DUP1 SWAP2 SUB SWAP1 REVERT JUMPDEST PUSH0 DUP1 PUSH0 CALLER PUSH20 0xFFFFFFFFFFFFFFFFFFFFFFFFFFFFFFFFFFFFFFFF AND PUSH20 0xFFFFFFFFFFFFFFFFFFFFFFFFFFFFFFFFFFFFFFFF AND DUP2 MSTORE PUSH1 0x20 ADD SWAP1 DUP2 MSTORE PUSH1 0x20 ADD PUSH0 KECCAK256 SWAP1 POP DUP2 DUP2 PUSH0 ADD SLOAD LT ISZERO PUSH2 0x939 JUMPI PUSH1 0x40 MLOAD PUSH32 0x8C379A000000000000000000000000000000000000000000000000000000000 DUP2 MSTORE PUSH1 0x4 ADD PUSH2 0x930 SWAP1 PUSH2 0x1AAB JUMP JUMPDEST PUSH1 0x40 MLOAD DUP1 SWAP2 SUB SWAP1 REVERT JUMPDEST PUSH2 0x942 CALLER PUSH2 0x140D JUMP JUMPDEST PUSH1 0x8 SLOAD DUP2 PUSH1 0x1 ADD SLOAD TIMESTAMP PUSH2 0x955 SWAP2 SWAP1 PUSH2 0x1AF6 JUMP JUMPDEST LT ISZERO PUSH2 0x988 JUMPI PUSH0 PUSH1 0x64 PUSH1 0x9 SLOAD DUP5 PUSH2 0x96C SWAP2 SWAP1 PUSH2 0x1B29 JUMP JUMPDEST PUSH2 0x976 SWAP2 SWAP1 PUSH2 0x1B97 JUMP JUMPDEST SWAP1 POP DUP1 DUP4 PUSH2 0x984 SWAP2 SWAP1 PUSH2 0x1AF6 JUMP JUMPDEST SWAP3 POP POP JUMPDEST DUP2 DUP2 PUSH0 ADD PUSH0 DUP3 DUP3 SLOAD PUSH2 0x99A SWAP2 SWAP1 PUSH2 0x1AF6 JUMP JUMPDEST SWAP3 POP POP DUP2 SWAP1 SSTORE POP DUP2 PUSH1 0x2 PUSH0 DUP3 DUP3 SLOAD PUSH2 0x9B2 SWAP2 SWAP1 PUSH2 0x1AF6 JUMP JUMPDEST SWAP3 POP POP DUP2 SWAP1 SSTORE POP CALLER PUSH20 0xFFFFFFFFFFFFFFFFFFFFFFFFFFFFFFFFFFFFFFFF AND PUSH2 0x8FC DUP4 SWAP1 DUP2 ISZERO MUL SWAP1 PUSH1 0x40 MLOAD PUSH0 PUSH1 0x40 MLOAD DUP1 DUP4 SUB DUP2 DUP6 DUP9 DUP9 CALL SWAP4 POP POP POP POP ISZERO DUP1 ISZERO PUSH2 0x9FC JUMPI RETURNDATASIZE PUSH0 DUP1 RETURNDATACOPY RETURNDATASIZE PUSH0 REVERT JUMPDEST POP PUSH32 0x7084F5476618D8E60B11EF0D7D3F06914655ADB8793E28FF7F018D4C76D505D5 CALLER DUP4 PUSH1 0x40 MLOAD PUSH2 0xA2E SWAP3 SWAP2 SWAP1 PUSH2 0x1BC7 JUMP JUMPDEST PUSH1 0x40 MLOAD DUP1 SWAP2 SUB SWAP1 LOG1 POP POP JUMP JUMPDEST PUSH1 0x5 SLOAD DUP2 JUMP JUMPDEST CALLER PUSH20 0xFFFFFFFFFFFFFFFFFFFFFFFFFFFFFFFFFFFFFFFF AND PUSH1 0x14 PUSH0 SWAP1 SLOAD SWAP1 PUSH2 0x100 EXP SWAP1 DIV PUSH20 0xFFFFFFFFFFFFFFFFFFFFFFFFFFFFFFFFFFFFFFFF AND PUSH20 0xFFFFFFFFFFFFFFFFFFFFFFFFFFFFFFFFFFFFFFFF AND EQ PUSH2 0xACF JUMPI PUSH1 0x40 MLOAD PUSH32 0x8C379A000000000000000000000000000000000000000000000000000000000 DUP2 MSTORE PUSH1 0x4 ADD PUSH2 0xAC6 SWAP1 PUSH2 0x19B5 JUMP JUMPDEST PUSH1 0x40 MLOAD DUP1 SWAP2 SUB SWAP1 REVERT JUMPDEST DUP1 PUSH1 0x6 DUP2 SWAP1 SSTORE POP POP JUMP JUMPDEST PUSH1 0x2 SLOAD DUP2 JUMP JUMPDEST CALLER PUSH20 0xFFFFFFFFFFFFFFFFFFFFFFFFFFFFFFFFFFFFFFFF AND PUSH1 0x14 PUSH0 SWAP1 SLOAD SWAP1 PUSH2 0x100 EXP SWAP1 DIV PUSH20 0xFFFFFFFFFFFFFFFFFFFFFFFFFFFFFFFFFFFFFFFF AND PUSH20 0xFFFFFFFFFFFFFFFFFFFFFFFFFFFFFFFFFFFFFFFF AND EQ PUSH2 0xB6E JUMPI PUSH1 0x40 MLOAD PUSH32 0x8C379A000000000000000000000000000000000000000000000000000000000 DUP2 MSTORE PUSH1 0x4 ADD PUSH2 0xB65 SWAP1 PUSH2 0x19B5 JUMP JUMPDEST PUSH1 0x40 MLOAD DUP1 SWAP2 SUB SWAP1 REVERT JUMPDEST PUSH0 JUMPDEST DUP2 MLOAD DUP2 LT ISZERO PUSH2 0xBBA JUMPI DUP2 DUP2 DUP2 MLOAD DUP2 LT PUSH2 0xB8C JUMPI PUSH2 0xB8B PUSH2 0x1BEE JUMP JUMPDEST JUMPDEST PUSH1 0x20 MUL PUSH1 0x20 ADD ADD MLOAD PUSH1 0xA DUP3 PUSH1 0x5 DUP2 LT PUSH2 0xBA8 JUMPI PUSH2 0xBA7 PUSH2 0x1BEE JUMP JUMPDEST JUMPDEST ADD DUP2 SWAP1 SSTORE POP DUP1 DUP1 PUSH1 0x1 ADD SWAP2 POP POP PUSH2 0xB70 JUMP JUMPDEST POP POP JUMP JUMPDEST PUSH1 0x7 SLOAD DUP2 JUMP JUMPDEST PUSH1 0x8 SLOAD DUP2 JUMP JUMPDEST CALLER PUSH20 0xFFFFFFFFFFFFFFFFFFFFFFFFFFFFFFFFFFFFFFFF AND PUSH1 0x14 PUSH0 SWAP1 SLOAD SWAP1 PUSH2 0x100 EXP SWAP1 DIV PUSH20 0xFFFFFFFFFFFFFFFFFFFFFFFFFFFFFFFFFFFFFFFF AND PUSH20 0xFFFFFFFFFFFFFFFFFFFFFFFFFFFFFFFFFFFFFFFF AND EQ PUSH2 0xC59 JUMPI PUSH1 0x40 MLOAD PUSH32 0x8C379A000000000000000000000000000000000000000000000000000000000 DUP2 MSTORE PUSH1 0x4 ADD PUSH2 0xC50 SWAP1 PUSH2 0x19B5 JUMP JUMPDEST PUSH1 0x40 MLOAD DUP1 SWAP2 SUB SWAP1 REVERT JUMPDEST DUP1 PUSH1 0x5 DUP2 SWAP1 SSTORE POP POP JUMP JUMPDEST PUSH1 0xA DUP2 PUSH1 0x5 DUP2 LT PUSH2 0xC72 JUMPI PUSH0 DUP1 REVERT JUMPDEST ADD PUSH0 SWAP2 POP SWAP1 POP SLOAD DUP2 JUMP JUMPDEST CALLER PUSH20 0xFFFFFFFFFFFFFFFFFFFFFFFFFFFFFFFFFFFFFFFF AND PUSH1 0x14 PUSH0 SWAP1 SLOAD SWAP1 PUSH2 0x100 EXP SWAP1 DIV PUSH20 0xFFFFFFFFFFFFFFFFFFFFFFFFFFFFFFFFFFFFFFFF AND PUSH20 0xFFFFFFFFFFFFFFFFFFFFFFFFFFFFFFFFFFFFFFFF AND EQ PUSH2 0xD0B JUMPI PUSH1 0x40 MLOAD PUSH32 0x8C379A000000000000000000000000000000000000000000000000000000000 DUP2 MSTORE PUSH1 0x4 ADD PUSH2 0xD02 SWAP1 PUSH2 0x19B5 JUMP JUMPDEST PUSH1 0x40 MLOAD DUP1 SWAP2 SUB SWAP1 REVERT JUMPDEST DUP1 PUSH1 0x9 DUP2 SWAP1 SSTORE POP POP JUMP JUMPDEST PUSH1 0x60 PUSH1 0x1 DUP1 SLOAD DUP1 PUSH1 0x20 MUL PUSH1 0x20 ADD PUSH1 0x40 MLOAD SWAP1 DUP2 ADD PUSH1 0x40 MSTORE DUP1 SWAP3 SWAP2 SWAP1 DUP2 DUP2 MSTORE PUSH1 0x20 ADD DUP3 DUP1 SLOAD DUP1 ISZERO PUSH2 0xD96 JUMPI PUSH1 0x20 MUL DUP3 ADD SWAP2 SWAP1 PUSH0 MSTORE PUSH1 0x20 PUSH0 KECCAK256 SWAP1 JUMPDEST DUP2 PUSH0 SWAP1 SLOAD SWAP1 PUSH2 0x100 EXP SWAP1 DIV PUSH20 0xFFFFFFFFFFFFFFFFFFFFFFFFFFFFFFFFFFFFFFFF AND PUSH20 0xFFFFFFFFFFFFFFFFFFFFFFFFFFFFFFFFFFFFFFFF AND DUP2 MSTORE PUSH1 0x20 ADD SWAP1 PUSH1 0x1 ADD SWAP1 DUP1 DUP4 GT PUSH2 0xD4D JUMPI JUMPDEST POP POP POP POP POP SWAP1 POP SWAP1 JUMP JUMPDEST PUSH0 PUSH2 0xE10 PUSH0 DUP1 DUP5 PUSH20 0xFFFFFFFFFFFFFFFFFFFFFFFFFFFFFFFFFFFFFFFF AND PUSH20 0xFFFFFFFFFFFFFFFFFFFFFFFFFFFFFFFFFFFFFFFF AND DUP2 MSTORE PUSH1 0x20 ADD SWAP1 DUP2 MSTORE PUSH1 0x20 ADD PUSH0 KECCAK256 PUSH1 0x1 ADD SLOAD TIMESTAMP PUSH2 0xDEF SWAP2 SWAP1 PUSH2 0x1AF6 JUMP JUMPDEST PUSH2 0xDF9 SWAP2 SWAP1 PUSH2 0x1B97 JUMP JUMPDEST SWAP1 POP SWAP2 SWAP1 POP JUMP JUMPDEST PUSH0 DUP1 PUSH0 DUP4 PUSH20 0xFFFFFFFFFFFFFFFFFFFFFFFFFFFFFFFFFFFFFFFF AND PUSH20 0xFFFFFFFFFFFFFFFFFFFFFFFFFFFFFFFFFFFFFFFF AND DUP2 MSTORE PUSH1 0x20 ADD SWAP1 DUP2 MSTORE PUSH1 0x20 ADD PUSH0 KECCAK256 PUSH1 0x2 ADD SLOAD SWAP1 POP SWAP2 SWAP1 POP JUMP JUMPDEST PUSH1 0x9 SLOAD DUP2 JUMP JUMPDEST CALLER PUSH20 0xFFFFFFFFFFFFFFFFFFFFFFFFFFFFFFFFFFFFFFFF AND PUSH1 0x14 PUSH0 SWAP1 SLOAD SWAP1 PUSH2 0x100 EXP SWAP1 DIV PUSH20 0xFFFFFFFFFFFFFFFFFFFFFFFFFFFFFFFFFFFFFFFF AND PUSH20 0xFFFFFFFFFFFFFFFFFFFFFFFFFFFFFFFFFFFFFFFF AND EQ PUSH2 0xEDD JUMPI PUSH1 0x40 MLOAD PUSH32 0x8C379A000000000000000000000000000000000000000000000000000000000 DUP2 MSTORE PUSH1 0x4 ADD PUSH2 0xED4 SWAP1 PUSH2 0x19B5 JUMP JUMPDEST PUSH1 0x40 MLOAD DUP1 SWAP2 SUB SWAP1 REVERT JUMPDEST PUSH0 JUMPDEST DUP2 MLOAD DUP2 LT ISZERO PUSH2 0xF29 JUMPI DUP2 DUP2 DUP2 MLOAD DUP2 LT PUSH2 0xEFB JUMPI PUSH2 0xEFA PUSH2 0x1BEE JUMP JUMPDEST JUMPDEST PUSH1 0x20 MUL PUSH1 0x20 ADD ADD MLOAD PUSH1 0xF DUP3 PUSH1 0x5 DUP2 LT PUSH2 0xF17 JUMPI PUSH2 0xF16 PUSH2 0x1BEE JUMP JUMPDEST JUMPDEST ADD DUP2 SWAP1 SSTORE POP DUP1 DUP1 PUSH1 0x1 ADD SWAP2 POP POP PUSH2 0xEDF JUMP JUMPDEST POP POP JUMP JUMPDEST PUSH0 PUSH1 0x20 MSTORE DUP1 PUSH0 MSTORE PUSH1 0x40 PUSH0 KECCAK256 PUSH0 SWAP2 POP SWAP1 POP DUP1 PUSH0 ADD SLOAD SWAP1 DUP1 PUSH1 0x1 ADD SLOAD SWAP1 DUP1 PUSH1 0x2 ADD SLOAD SWAP1 DUP1 PUSH1 0x3 ADD PUSH0 SWAP1 SLOAD SWAP1 PUSH2 0x100 EXP SWAP1 DIV PUSH1 0xFF AND SWAP1 POP DUP5 JUMP JUMPDEST PUSH1 0x14 PUSH0 SWAP1 SLOAD SWAP1 PUSH2 0x100 EXP SWAP1 DIV PUSH20 0xFFFFFFFFFFFFFFFFFFFFFFFFFFFFFFFFFFFFFFFF AND DUP2 JUMP JUMPDEST PUSH1 0x6 SLOAD DUP2 JUMP JUMPDEST PUSH0 CALLVALUE GT PUSH2 0xFD1 JUMPI PUSH1 0x40 MLOAD PUSH32 0x8C379A000000000000000000000000000000000000000000000000000000000 DUP2 MSTORE PUSH1 0x4 ADD PUSH2 0xFC8 SWAP1 PUSH2 0x1C65 JUMP JUMPDEST PUSH1 0x40 MLOAD DUP1 SWAP2 SUB SWAP1 REVERT JUMPDEST PUSH0 DUP1 PUSH0 CALLER PUSH20 0xFFFFFFFFFFFFFFFFFFFFFFFFFFFFFFFFFFFFFFFF AND PUSH20 0xFFFFFFFFFFFFFFFFFFFFFFFFFFFFFFFFFFFFFFFF AND DUP2 MSTORE PUSH1 0x20 ADD SWAP1 DUP2 MSTORE PUSH1 0x20 ADD PUSH0 KECCAK256 SWAP1 POP PUSH0 DUP2 PUSH0 ADD SLOAD GT ISZERO PUSH2 0x1025 JUMPI PUSH2 0x1024 CALLER PUSH2 0x140D JUMP JUMPDEST JUMPDEST PUSH1 0x3 SLOAD DUP2 PUSH0 ADD SLOAD CALLVALUE PUSH2 0x1037 SWAP2 SWAP1 PUSH2 0x1C83 JUMP JUMPDEST LT ISZERO DUP1 ISZERO PUSH2 0x1048 JUMPI POP PUSH1 0x5 SLOAD PUSH1 0x4 SLOAD LT JUMPDEST DUP1 ISZERO PUSH2 0x1067 JUMPI POP PUSH0 ISZERO ISZERO DUP2 PUSH1 0x3 ADD PUSH0 SWAP1 SLOAD SWAP1 PUSH2 0x100 EXP SWAP1 DIV PUSH1 0xFF AND ISZERO ISZERO EQ JUMPDEST ISZERO PUSH2 0x111C JUMPI PUSH1 0x6 SLOAD DUP2 PUSH1 0x2 ADD PUSH0 DUP3 DUP3 SLOAD PUSH2 0x1081 SWAP2 SWAP1 PUSH2 0x1C83 JUMP JUMPDEST SWAP3 POP POP DUP2 SWAP1 SSTORE POP PUSH1 0x4 PUSH0 DUP2 SLOAD DUP1 SWAP3 SWAP2 SWAP1 PUSH2 0x109A SWAP1 PUSH2 0x1CB6 JUMP JUMPDEST SWAP2 SWAP1 POP SSTORE POP PUSH1 0x1 CALLER SWAP1 DUP1 PUSH1 0x1 DUP2 SLOAD ADD DUP1 DUP3 SSTORE DUP1 SWAP2 POP POP PUSH1 0x1 SWAP1 SUB SWAP1 PUSH0 MSTORE PUSH1 0x20 PUSH0 KECCAK256 ADD PUSH0 SWAP1 SWAP2 SWAP1 SWAP2 SWAP1 SWAP2 PUSH2 0x100 EXP DUP2 SLOAD DUP2 PUSH20 0xFFFFFFFFFFFFFFFFFFFFFFFFFFFFFFFFFFFFFFFF MUL NOT AND SWAP1 DUP4 PUSH20 0xFFFFFFFFFFFFFFFFFFFFFFFFFFFFFFFFFFFFFFFF AND MUL OR SWAP1 SSTORE POP PUSH1 0x1 DUP2 PUSH1 0x3 ADD PUSH0 PUSH2 0x100 EXP DUP2 SLOAD DUP2 PUSH1 0xFF MUL NOT AND SWAP1 DUP4 ISZERO ISZERO MUL OR SWAP1 SSTORE POP JUMPDEST CALLVALUE DUP2 PUSH0 ADD PUSH0 DUP3 DUP3 SLOAD PUSH2 0x112E SWAP2 SWAP1 PUSH2 0x1C83 JUMP JUMPDEST SWAP3 POP POP DUP2 SWAP1 SSTORE POP CALLVALUE PUSH1 0x2 PUSH0 DUP3 DUP3 SLOAD PUSH2 0x1146 SWAP2 SWAP1 PUSH2 0x1C83 JUMP JUMPDEST SWAP3 POP POP DUP2 SWAP1 SSTORE POP TIMESTAMP DUP2 PUSH1 0x1 ADD DUP2 SWAP1 SSTORE POP PUSH32 0x2DA466A7B24304F47E87FA2E1E5A81B9831CE54FEC19055CE277CA2F39BA42C4 CALLER CALLVALUE PUSH1 0x40 MLOAD PUSH2 0x1187 SWAP3 SWAP2 SWAP1 PUSH2 0x1BC7 JUMP JUMPDEST PUSH1 0x40 MLOAD DUP1 SWAP2 SUB SWAP1 LOG1 POP JUMP JUMPDEST PUSH0 DUP1 PUSH0 DUP4 PUSH20 0xFFFFFFFFFFFFFFFFFFFFFFFFFFFFFFFFFFFFFFFF AND PUSH20 0xFFFFFFFFFFFFFFFFFFFFFFFFFFFFFFFFFFFFFFFF AND DUP2 MSTORE PUSH1 0x20 ADD SWAP1 DUP2 MSTORE PUSH1 0x20 ADD PUSH0 KECCAK256 PUSH0 ADD SLOAD SWAP1 POP SWAP2 SWAP1 POP JUMP JUMPDEST CALLER PUSH20 0xFFFFFFFFFFFFFFFFFFFFFFFFFFFFFFFFFFFFFFFF AND PUSH1 0x14 PUSH0 SWAP1 SLOAD SWAP1 PUSH2 0x100 EXP SWAP1 DIV PUSH20 0xFFFFFFFFFFFFFFFFFFFFFFFFFFFFFFFFFFFFFFFF AND PUSH20 0xFFFFFFFFFFFFFFFFFFFFFFFFFFFFFFFFFFFFFFFF AND EQ PUSH2 0x1268 JUMPI PUSH1 0x40 MLOAD PUSH32 0x8C379A000000000000000000000000000000000000000000000000000000000 DUP2 MSTORE PUSH1 0x4 ADD PUSH2 0x125F SWAP1 PUSH2 0x19B5 JUMP JUMPDEST PUSH1 0x40 MLOAD DUP1 SWAP2 SUB SWAP1 REVERT JUMPDEST CALLER PUSH20 0xFFFFFFFFFFFFFFFFFFFFFFFFFFFFFFFFFFFFFFFF AND PUSH2 0x8FC DUP3 SWAP1 DUP2 ISZERO MUL SWAP1 PUSH1 0x40 MLOAD PUSH0 PUSH1 0x40 MLOAD DUP1 DUP4 SUB DUP2 DUP6 DUP9 DUP9 CALL SWAP4 POP POP POP POP ISZERO DUP1 ISZERO PUSH2 0x12AB JUMPI RETURNDATASIZE PUSH0 DUP1 RETURNDATACOPY RETURNDATASIZE PUSH0 REVERT JUMPDEST POP DUP1 PUSH1 0x2 PUSH0 DUP3 DUP3 SLOAD PUSH2 0x12BD SWAP2 SWAP1 PUSH2 0x1AF6 JUMP JUMPDEST SWAP3 POP POP DUP2 SWAP1 SSTORE POP PUSH32 0x7084F5476618D8E60B11EF0D7D3F06914655ADB8793E28FF7F018D4C76D505D5 CALLER DUP3 PUSH1 0x40 MLOAD PUSH2 0x12F5 SWAP3 SWAP2 SWAP1 PUSH2 0x1BC7 JUMP JUMPDEST PUSH1 0x40 MLOAD DUP1 SWAP2 SUB SWAP1 LOG1 POP JUMP JUMPDEST CALLER PUSH20 0xFFFFFFFFFFFFFFFFFFFFFFFFFFFFFFFFFFFFFFFF AND PUSH1 0x14 PUSH0 SWAP1 SLOAD SWAP1 PUSH2 0x100 EXP SWAP1 DIV PUSH20 0xFFFFFFFFFFFFFFFFFFFFFFFFFFFFFFFFFFFFFFFF AND PUSH20 0xFFFFFFFFFFFFFFFFFFFFFFFFFFFFFFFFFFFFFFFF AND EQ PUSH2 0x138F JUMPI PUSH1 0x40 MLOAD PUSH32 0x8C379A000000000000000000000000000000000000000000000000000000000 DUP2 MSTORE PUSH1 0x4 ADD PUSH2 0x1386 SWAP1 PUSH2 0x19B5 JUMP JUMPDEST PUSH1 0x40 MLOAD DUP1 SWAP2 SUB SWAP1 REVERT JUMPDEST DUP1 PUSH1 0x7 DUP2 SWAP1 SSTORE POP POP JUMP JUMPDEST PUSH1 0x4 SLOAD DUP2 JUMP JUMPDEST PUSH0 DUP1 PUSH0 DUP1 DUP5 PUSH20 0xFFFFFFFFFFFFFFFFFFFFFFFFFFFFFFFFFFFFFFFF AND PUSH20 0xFFFFFFFFFFFFFFFFFFFFFFFFFFFFFFFFFFFFFFFF AND DUP2 MSTORE PUSH1 0x20 ADD SWAP1 DUP2 MSTORE PUSH1 0x20 ADD PUSH0 KECCAK256 SWAP1 POP PUSH0 PUSH2 0x13EC DUP3 PUSH0 ADD SLOAD PUSH2 0x14C9 JUMP JUMPDEST SWAP1 POP PUSH1 0xA DUP2 PUSH1 0x5 DUP2 LT PUSH2 0x1402 JUMPI PUSH2 0x1401 PUSH2 0x1BEE JUMP JUMPDEST JUMPDEST ADD SLOAD SWAP3 POP POP POP SWAP2 SWAP1 POP JUMP JUMPDEST PUSH0 DUP1 PUSH0 DUP4 PUSH20 0xFFFFFFFFFFFFFFFFFFFFFFFFFFFFFFFFFFFFFFFF AND PUSH20 0xFFFFFFFFFFFFFFFFFFFFFFFFFFFFFFFFFFFFFFFF AND DUP2 MSTORE PUSH1 0x20 ADD SWAP1 DUP2 MSTORE PUSH1 0x20 ADD PUSH0 KECCAK256 SWAP1 POP PUSH0 PUSH2 0xE10 DUP3 PUSH1 0x1 ADD SLOAD TIMESTAMP PUSH2 0x1460 SWAP2 SWAP1 PUSH2 0x1AF6 JUMP JUMPDEST PUSH2 0x146A SWAP2 SWAP1 PUSH2 0x1B97 JUMP JUMPDEST SWAP1 POP PUSH0 PUSH2 0x1479 DUP4 PUSH0 ADD SLOAD PUSH2 0x14C9 JUMP JUMPDEST SWAP1 POP PUSH0 PUSH1 0xA DUP3 PUSH1 0x5 DUP2 LT PUSH2 0x1490 JUMPI PUSH2 0x148F PUSH2 0x1BEE JUMP JUMPDEST JUMPDEST ADD SLOAD DUP4 PUSH2 0x149D SWAP2 SWAP1 PUSH2 0x1B29 JUMP JUMPDEST SWAP1 POP DUP1 DUP5 PUSH1 0x2 ADD PUSH0 DUP3 DUP3 SLOAD PUSH2 0x14B2 SWAP2 SWAP1 PUSH2 0x1C83 JUMP JUMPDEST SWAP3 POP POP DUP2 SWAP1 SSTORE POP TIMESTAMP DUP5 PUSH1 0x1 ADD DUP2 SWAP1 SSTORE POP POP POP POP POP POP JUMP JUMPDEST PUSH0 DUP1 PUSH1 0x1 PUSH1 0x5 PUSH2 0x14D9 SWAP2 SWAP1 PUSH2 0x1AF6 JUMP JUMPDEST SWAP1 POP JUMPDEST PUSH0 DUP2 GT ISZERO PUSH2 0x151C JUMPI PUSH1 0xF DUP2 PUSH1 0x5 DUP2 LT PUSH2 0x14F8 JUMPI PUSH2 0x14F7 PUSH2 0x1BEE JUMP JUMPDEST JUMPDEST ADD SLOAD DUP4 LT PUSH2 0x1509 JUMPI DUP1 SWAP2 POP POP PUSH2 0x1521 JUMP JUMPDEST DUP1 DUP1 PUSH2 0x1514 SWAP1 PUSH2 0x1CFD JUMP JUMPDEST SWAP2 POP POP PUSH2 0x14DC JUMP JUMPDEST POP PUSH0 SWAP1 POP JUMPDEST SWAP2 SWAP1 POP JUMP JUMPDEST PUSH0 DUP2 SWAP1 POP SWAP2 SWAP1 POP JUMP JUMPDEST PUSH2 0x1538 DUP2 PUSH2 0x1526 JUMP JUMPDEST DUP3 MSTORE POP POP JUMP JUMPDEST PUSH0 PUSH1 0x20 DUP3 ADD SWAP1 POP PUSH2 0x1551 PUSH0 DUP4 ADD DUP5 PUSH2 0x152F JUMP JUMPDEST SWAP3 SWAP2 POP POP JUMP JUMPDEST PUSH0 PUSH1 0x40 MLOAD SWAP1 POP SWAP1 JUMP JUMPDEST PUSH0 DUP1 REVERT JUMPDEST PUSH0 DUP1 REVERT JUMPDEST PUSH2 0x1571 DUP2 PUSH2 0x1526 JUMP JUMPDEST DUP2 EQ PUSH2 0x157B JUMPI PUSH0 DUP1 REVERT JUMPDEST POP JUMP JUMPDEST PUSH0 DUP2 CALLDATALOAD SWAP1 POP PUSH2 0x158C DUP2 PUSH2 0x1568 JUMP JUMPDEST SWAP3 SWAP2 POP POP JUMP JUMPDEST PUSH0 PUSH1 0x20 DUP3 DUP5 SUB SLT ISZERO PUSH2 0x15A7 JUMPI PUSH2 0x15A6 PUSH2 0x1560 JUMP JUMPDEST JUMPDEST PUSH0 PUSH2 0x15B4 DUP5 DUP3 DUP6 ADD PUSH2 0x157E JUMP JUMPDEST SWAP2 POP POP SWAP3 SWAP2 POP POP JUMP JUMPDEST PUSH0 PUSH20 0xFFFFFFFFFFFFFFFFFFFFFFFFFFFFFFFFFFFFFFFF DUP3 AND SWAP1 POP SWAP2 SWAP1 POP JUMP JUMPDEST PUSH0 PUSH2 0x15E6 DUP3 PUSH2 0x15BD JUMP JUMPDEST SWAP1 POP SWAP2 SWAP1 POP JUMP JUMPDEST PUSH2 0x15F6 DUP2 PUSH2 0x15DC JUMP JUMPDEST DUP3 MSTORE POP POP JUMP JUMPDEST PUSH0 PUSH1 0x20 DUP3 ADD SWAP1 POP PUSH2 0x160F PUSH0 DUP4 ADD DUP5 PUSH2 0x15ED JUMP JUMPDEST SWAP3 SWAP2 POP POP JUMP JUMPDEST PUSH0 DUP1 REVERT JUMPDEST PUSH0 PUSH1 0x1F NOT PUSH1 0x1F DUP4 ADD AND SWAP1 POP SWAP2 SWAP1 POP JUMP JUMPDEST PUSH32 0x4E487B7100000000000000000000000000000000000000000000000000000000 PUSH0 MSTORE PUSH1 0x41 PUSH1 0x4 MSTORE PUSH1 0x24 PUSH0 REVERT JUMPDEST PUSH2 0x165F DUP3 PUSH2 0x1619 JUMP JUMPDEST DUP2 ADD DUP2 DUP2 LT PUSH8 0xFFFFFFFFFFFFFFFF DUP3 GT OR ISZERO PUSH2 0x167E JUMPI PUSH2 0x167D PUSH2 0x1629 JUMP JUMPDEST JUMPDEST DUP1 PUSH1 0x40 MSTORE POP POP POP JUMP JUMPDEST PUSH0 PUSH2 0x1690 PUSH2 0x1557 JUMP JUMPDEST SWAP1 POP PUSH2 0x169C DUP3 DUP3 PUSH2 0x1656 JUMP JUMPDEST SWAP2 SWAP1 POP JUMP JUMPDEST PUSH0 PUSH8 0xFFFFFFFFFFFFFFFF DUP3 GT ISZERO PUSH2 0x16BB JUMPI PUSH2 0x16BA PUSH2 0x1629 JUMP JUMPDEST JUMPDEST PUSH1 0x20 DUP3 MUL SWAP1 POP PUSH1 0x20 DUP2 ADD SWAP1 POP SWAP2 SWAP1 POP JUMP JUMPDEST PUSH0 DUP1 REVERT JUMPDEST PUSH0 PUSH2 0x16E2 PUSH2 0x16DD DUP5 PUSH2 0x16A1 JUMP JUMPDEST PUSH2 0x1687 JUMP JUMPDEST SWAP1 POP DUP1 DUP4 DUP3 MSTORE PUSH1 0x20 DUP3 ADD SWAP1 POP PUSH1 0x20 DUP5 MUL DUP4 ADD DUP6 DUP2 GT ISZERO PUSH2 0x1705 JUMPI PUSH2 0x1704 PUSH2 0x16CC JUMP JUMPDEST JUMPDEST DUP4 JUMPDEST DUP2 DUP2 LT ISZERO PUSH2 0x172E JUMPI DUP1 PUSH2 0x171A DUP9 DUP3 PUSH2 0x157E JUMP JUMPDEST DUP5 MSTORE PUSH1 0x20 DUP5 ADD SWAP4 POP POP PUSH1 0x20 DUP2 ADD SWAP1 POP PUSH2 0x1707 JUMP JUMPDEST POP POP POP SWAP4 SWAP3 POP POP POP JUMP JUMPDEST PUSH0 DUP3 PUSH1 0x1F DUP4 ADD SLT PUSH2 0x174C JUMPI PUSH2 0x174B PUSH2 0x1615 JUMP JUMPDEST JUMPDEST DUP2 CALLDATALOAD PUSH2 0x175C DUP5 DUP3 PUSH1 0x20 DUP7 ADD PUSH2 0x16D0 JUMP JUMPDEST SWAP2 POP POP SWAP3 SWAP2 POP POP JUMP JUMPDEST PUSH0 PUSH1 0x20 DUP3 DUP5 SUB SLT ISZERO PUSH2 0x177A JUMPI PUSH2 0x1779 PUSH2 0x1560 JUMP JUMPDEST JUMPDEST PUSH0 DUP3 ADD CALLDATALOAD PUSH8 0xFFFFFFFFFFFFFFFF DUP2 GT ISZERO PUSH2 0x1797 JUMPI PUSH2 0x1796 PUSH2 0x1564 JUMP JUMPDEST JUMPDEST PUSH2 0x17A3 DUP5 DUP3 DUP6 ADD PUSH2 0x1738 JUMP JUMPDEST SWAP2 POP POP SWAP3 SWAP2 POP POP JUMP JUMPDEST PUSH0 DUP2 MLOAD SWAP1 POP SWAP2 SWAP1 POP JUMP JUMPDEST PUSH0 DUP3 DUP3 MSTORE PUSH1 0x20 DUP3 ADD SWAP1 POP SWAP3 SWAP2 POP POP JUMP JUMPDEST PUSH0 DUP2 SWAP1 POP PUSH1 0x20 DUP3 ADD SWAP1 POP SWAP2 SWAP1 POP JUMP JUMPDEST PUSH2 0x17DE DUP2 PUSH2 0x15DC JUMP JUMPDEST DUP3 MSTORE POP POP JUMP JUMPDEST PUSH0 PUSH2 0x17EF DUP4 DUP4 PUSH2 0x17D5 JUMP JUMPDEST PUSH1 0x20 DUP4 ADD SWAP1 POP SWAP3 SWAP2 POP POP JUMP JUMPDEST PUSH0 PUSH1 0x20 DUP3 ADD SWAP1 POP SWAP2 SWAP1 POP JUMP JUMPDEST PUSH0 PUSH2 0x1811 DUP3 PUSH2 0x17AC JUMP JUMPDEST PUSH2 0x181B DUP2 DUP6 PUSH2 0x17B6 JUMP JUMPDEST SWAP4 POP PUSH2 0x1826 DUP4 PUSH2 0x17C6 JUMP JUMPDEST DUP1 PUSH0 JUMPDEST DUP4 DUP2 LT ISZERO PUSH2 0x1856 JUMPI DUP2 MLOAD PUSH2 0x183D DUP9 DUP3 PUSH2 0x17E4 JUMP JUMPDEST SWAP8 POP PUSH2 0x1848 DUP4 PUSH2 0x17FB JUMP JUMPDEST SWAP3 POP POP PUSH1 0x1 DUP2 ADD SWAP1 POP PUSH2 0x1829 JUMP JUMPDEST POP DUP6 SWAP4 POP POP POP POP SWAP3 SWAP2 POP POP JUMP JUMPDEST PUSH0 PUSH1 0x20 DUP3 ADD SWAP1 POP DUP2 DUP2 SUB PUSH0 DUP4 ADD MSTORE PUSH2 0x187B DUP2 DUP5 PUSH2 0x1807 JUMP JUMPDEST SWAP1 POP SWAP3 SWAP2 POP POP JUMP JUMPDEST PUSH2 0x188C DUP2 PUSH2 0x15DC JUMP JUMPDEST DUP2 EQ PUSH2 0x1896 JUMPI PUSH0 DUP1 REVERT JUMPDEST POP JUMP JUMPDEST PUSH0 DUP2 CALLDATALOAD SWAP1 POP PUSH2 0x18A7 DUP2 PUSH2 0x1883 JUMP JUMPDEST SWAP3 SWAP2 POP POP JUMP JUMPDEST PUSH0 PUSH1 0x20 DUP3 DUP5 SUB SLT ISZERO PUSH2 0x18C2 JUMPI PUSH2 0x18C1 PUSH2 0x1560 JUMP JUMPDEST JUMPDEST PUSH0 PUSH2 0x18CF DUP5 DUP3 DUP6 ADD PUSH2 0x1899 JUMP JUMPDEST SWAP2 POP POP SWAP3 SWAP2 POP POP JUMP JUMPDEST PUSH0 DUP2 ISZERO ISZERO SWAP1 POP SWAP2 SWAP1 POP JUMP JUMPDEST PUSH2 0x18EC DUP2 PUSH2 0x18D8 JUMP JUMPDEST DUP3 MSTORE POP POP JUMP JUMPDEST PUSH0 PUSH1 0x80 DUP3 ADD SWAP1 POP PUSH2 0x1905 PUSH0 DUP4 ADD DUP8 PUSH2 0x152F JUMP JUMPDEST PUSH2 0x1912 PUSH1 0x20 DUP4 ADD DUP7 PUSH2 0x152F JUMP JUMPDEST PUSH2 0x191F PUSH1 0x40 DUP4 ADD DUP6 PUSH2 0x152F JUMP JUMPDEST PUSH2 0x192C PUSH1 0x60 DUP4 ADD DUP5 PUSH2 0x18E3 JUMP JUMPDEST SWAP6 SWAP5 POP POP POP POP POP JUMP JUMPDEST PUSH0 DUP3 DUP3 MSTORE PUSH1 0x20 DUP3 ADD SWAP1 POP SWAP3 SWAP2 POP POP JUMP JUMPDEST PUSH32 0x4F776E65727368697020417373657274696F6E3A2043616C6C6572206F662074 PUSH0 DUP3 ADD MSTORE PUSH32 0x68652066756E6374696F6E206973206E6F7420746865206F776E65722E000000 PUSH1 0x20 DUP3 ADD MSTORE POP JUMP JUMPDEST PUSH0 PUSH2 0x199F PUSH1 0x3D DUP4 PUSH2 0x1935 JUMP JUMPDEST SWAP2 POP PUSH2 0x19AA DUP3 PUSH2 0x1945 JUMP JUMPDEST PUSH1 0x40 DUP3 ADD SWAP1 POP SWAP2 SWAP1 POP JUMP JUMPDEST PUSH0 PUSH1 0x20 DUP3 ADD SWAP1 POP DUP2 DUP2 SUB PUSH0 DUP4 ADD MSTORE PUSH2 0x19CC DUP2 PUSH2 0x1993 JUMP JUMPDEST SWAP1 POP SWAP2 SWAP1 POP JUMP JUMPDEST PUSH32 0x5769746864726177616C20616D6F756E74206D75737420626520677265617465 PUSH0 DUP3 ADD MSTORE PUSH32 0x72207468616E2030000000000000000000000000000000000000000000000000 PUSH1 0x20 DUP3 ADD MSTORE POP JUMP JUMPDEST PUSH0 PUSH2 0x1A2D PUSH1 0x28 DUP4 PUSH2 0x1935 JUMP JUMPDEST SWAP2 POP PUSH2 0x1A38 DUP3 PUSH2 0x19D3 JUMP JUMPDEST PUSH1 0x40 DUP3 ADD SWAP1 POP SWAP2 SWAP1 POP JUMP JUMPDEST PUSH0 PUSH1 0x20 DUP3 ADD SWAP1 POP DUP2 DUP2 SUB PUSH0 DUP4 ADD MSTORE PUSH2 0x1A5A DUP2 PUSH2 0x1A21 JUMP JUMPDEST SWAP1 POP SWAP2 SWAP1 POP JUMP JUMPDEST PUSH32 0x496E73756666696369656E742062616C616E6365000000000000000000000000 PUSH0 DUP3 ADD MSTORE POP JUMP JUMPDEST PUSH0 PUSH2 0x1A95 PUSH1 0x14 DUP4 PUSH2 0x1935 JUMP JUMPDEST SWAP2 POP PUSH2 0x1AA0 DUP3 PUSH2 0x1A61 JUMP JUMPDEST PUSH1 0x20 DUP3 ADD SWAP1 POP SWAP2 SWAP1 POP JUMP JUMPDEST PUSH0 PUSH1 0x20 DUP3 ADD SWAP1 POP DUP2 DUP2 SUB PUSH0 DUP4 ADD MSTORE PUSH2 0x1AC2 DUP2 PUSH2 0x1A89 JUMP JUMPDEST SWAP1 POP SWAP2 SWAP1 POP JUMP JUMPDEST PUSH32 0x4E487B7100000000000000000000000000000000000000000000000000000000 PUSH0 MSTORE PUSH1 0x11 PUSH1 0x4 MSTORE PUSH1 0x24 PUSH0 REVERT JUMPDEST PUSH0 PUSH2 0x1B00 DUP3 PUSH2 0x1526 JUMP JUMPDEST SWAP2 POP PUSH2 0x1B0B DUP4 PUSH2 0x1526 JUMP JUMPDEST SWAP3 POP DUP3 DUP3 SUB SWAP1 POP DUP2 DUP2 GT ISZERO PUSH2 0x1B23 JUMPI PUSH2 0x1B22 PUSH2 0x1AC9 JUMP JUMPDEST JUMPDEST SWAP3 SWAP2 POP POP JUMP JUMPDEST PUSH0 PUSH2 0x1B33 DUP3 PUSH2 0x1526 JUMP JUMPDEST SWAP2 POP PUSH2 0x1B3E DUP4 PUSH2 0x1526 JUMP JUMPDEST SWAP3 POP DUP3 DUP3 MUL PUSH2 0x1B4C DUP2 PUSH2 0x1526 JUMP JUMPDEST SWAP2 POP DUP3 DUP3 DIV DUP5 EQ DUP4 ISZERO OR PUSH2 0x1B63 JUMPI PUSH2 0x1B62 PUSH2 0x1AC9 JUMP JUMPDEST JUMPDEST POP SWAP3 SWAP2 POP POP JUMP JUMPDEST PUSH32 0x4E487B7100000000000000000000000000000000000000000000000000000000 PUSH0 MSTORE PUSH1 0x12 PUSH1 0x4 MSTORE PUSH1 0x24 PUSH0 REVERT JUMPDEST PUSH0 PUSH2 0x1BA1 DUP3 PUSH2 0x1526 JUMP JUMPDEST SWAP2 POP PUSH2 0x1BAC DUP4 PUSH2 0x1526 JUMP JUMPDEST SWAP3 POP DUP3 PUSH2 0x1BBC JUMPI PUSH2 0x1BBB PUSH2 0x1B6A JUMP JUMPDEST JUMPDEST DUP3 DUP3 DIV SWAP1 POP SWAP3 SWAP2 POP POP JUMP JUMPDEST PUSH0 PUSH1 0x40 DUP3 ADD SWAP1 POP PUSH2 0x1BDA PUSH0 DUP4 ADD DUP6 PUSH2 0x15ED JUMP JUMPDEST PUSH2 0x1BE7 PUSH1 0x20 DUP4 ADD DUP5 PUSH2 0x152F JUMP JUMPDEST SWAP4 SWAP3 POP POP POP JUMP JUMPDEST PUSH32 0x4E487B7100000000000000000000000000000000000000000000000000000000 PUSH0 MSTORE PUSH1 0x32 PUSH1 0x4 MSTORE PUSH1 0x24 PUSH0 REVERT JUMPDEST PUSH32 0x4465706F736974206D7573742062652067726561746572207468616E20300000 PUSH0 DUP3 ADD MSTORE POP JUMP JUMPDEST PUSH0 PUSH2 0x1C4F PUSH1 0x1E DUP4 PUSH2 0x1935 JUMP JUMPDEST SWAP2 POP PUSH2 0x1C5A DUP3 PUSH2 0x1C1B JUMP JUMPDEST PUSH1 0x20 DUP3 ADD SWAP1 POP SWAP2 SWAP1 POP JUMP JUMPDEST PUSH0 PUSH1 0x20 DUP3 ADD SWAP1 POP DUP2 DUP2 SUB PUSH0 DUP4 ADD MSTORE PUSH2 0x1C7C DUP2 PUSH2 0x1C43 JUMP JUMPDEST SWAP1 POP SWAP2 SWAP1 POP JUMP JUMPDEST PUSH0 PUSH2 0x1C8D DUP3 PUSH2 0x1526 JUMP JUMPDEST SWAP2 POP PUSH2 0x1C98 DUP4 PUSH2 0x1526 JUMP JUMPDEST SWAP3 POP DUP3 DUP3 ADD SWAP1 POP DUP1 DUP3 GT ISZERO PUSH2 0x1CB0 JUMPI PUSH2 0x1CAF PUSH2 0x1AC9 JUMP JUMPDEST JUMPDEST SWAP3 SWAP2 POP POP JUMP JUMPDEST PUSH0 PUSH2 0x1CC0 DUP3 PUSH2 0x1526 JUMP JUMPDEST SWAP2 POP PUSH32 0xFFFFFFFFFFFFFFFFFFFFFFFFFFFFFFFFFFFFFFFFFFFFFFFFFFFFFFFFFFFFFFFF DUP3 SUB PUSH2 0x1CF2 JUMPI PUSH2 0x1CF1 PUSH2 0x1AC9 JUMP JUMPDEST JUMPDEST PUSH1 0x1 DUP3 ADD SWAP1 POP SWAP2 SWAP1 POP JUMP JUMPDEST PUSH0 PUSH2 0x1D07 DUP3 PUSH2 0x1526 JUMP JUMPDEST SWAP2 POP PUSH0 DUP3 SUB PUSH2 0x1D19 JUMPI PUSH2 0x1D18 PUSH2 0x1AC9 JUMP JUMPDEST JUMPDEST PUSH1 0x1 DUP3 SUB SWAP1 POP SWAP2 SWAP1 POP JUMP INVALID LOG2 PUSH5 0x6970667358 0x22 SLT KECCAK256 MLOAD RETURN PUSH14 0x83D311CB02EE6DE1A30988F7E3EF 0xC SWAP16 SWAP3 0xCC CALL PUSH9 0x6C84FAA82ADCA52DD7 PUSH5 0x736F6C6343 STOP ADDMOD BYTE STOP CALLER "
		},
		"gasEstimates": {
			"creation": {
				"codeDepositCost": "1502800",
				"executionCost": "infinite",
				"totalCost": "infinite"
			},
			"external": {
				"MaxAdopters()": "2537",
				"_getPointRatePerhour(address)": "infinite",
				"_getPoints(address)": "2880",
				"_getStakedAmount(address)": "2945",
				"_getStakingDuration(address)": "infinite",
				"_owner()": "2553",
				"_setDepositRanges(uint256[])": "infinite",
				"_setEarlyAdopterBonus(uint256)": "24730",
				"_setEarlyAdopterThreshold(uint256)": "24752",
				"_setMaxAdopters(uint256)": "24773",
				"_setMinimumDeposit(uint256)": "24750",
				"_setPointsRates(uint256[])": "infinite",
				"_setWithdrawalPenalty(uint256)": "24730",
				"_setWithdrawalPenaltyTime(uint256)": "24775",
				"deposit()": "infinite",
				"depositRanges(uint256)": "infinite",
				"earlyAdopterBonus()": "2492",
				"earlyAdopterThreshold()": "2472",
				"earlyAdopterUsers(uint256)": "4990",
				"earlyAdoptersCount()": "2513",
				"getalladopters()": "infinite",
				"minimumDeposit()": "2470",
				"pointsRates(uint256)": "infinite",
				"totalStakedAmount()": "2493",
				"users(address)": "infinite",
				"withdraw(uint256)": "infinite",
				"withdrawAdmin(uint256)": "infinite",
				"withdrawalPenalty()": "2492",
				"withdrawalPenaltyTime()": "2492"
			},
			"internal": {
				"_calculatePoints(address)": "infinite",
				"_getRateIndex(uint256)": "infinite"
			}
		},
		"methodIdentifiers": {
			"MaxAdopters()": "403460f2",
			"_getPointRatePerhour(address)": "faad525c",
			"_getPoints(address)": "9173a675",
			"_getStakedAmount(address)": "d2c11653",
			"_getStakingDuration(address)": "8db3bd61",
			"_owner()": "b2bdfa7b",
			"_setDepositRanges(uint256[])": "a3ccd478",
			"_setEarlyAdopterBonus(uint256)": "442f8177",
			"_setEarlyAdopterThreshold(uint256)": "22a27310",
			"_setMaxAdopters(uint256)": "681fae67",
			"_setMinimumDeposit(uint256)": "d9f7cef5",
			"_setPointsRates(uint256[])": "58ba2bd2",
			"_setWithdrawalPenalty(uint256)": "87ae89db",
			"_setWithdrawalPenaltyTime(uint256)": "1dc7f687",
			"deposit()": "d0e30db0",
			"depositRanges(uint256)": "1249e91d",
			"earlyAdopterBonus()": "bf555b89",
			"earlyAdopterThreshold()": "074ef7af",
			"earlyAdopterUsers(uint256)": "2105fa57",
			"earlyAdoptersCount()": "f9436784",
			"getalladopters()": "8910dedf",
			"minimumDeposit()": "636bfbab",
			"pointsRates(uint256)": "738dc4cf",
			"totalStakedAmount()": "567e98f9",
			"users(address)": "a87430ba",
			"withdraw(uint256)": "2e1a7d4d",
			"withdrawAdmin(uint256)": "d77836ce",
			"withdrawalPenalty()": "a2468c19",
			"withdrawalPenaltyTime()": "66b7de1f"
		}
	},
	"abi": [
		{
			"inputs": [],
			"stateMutability": "nonpayable",
			"type": "constructor"
		},
		{
			"anonymous": false,
			"inputs": [
				{
					"indexed": false,
					"internalType": "address",
					"name": "user",
					"type": "address"
				},
				{
					"indexed": false,
					"internalType": "uint256",
					"name": "amount",
					"type": "uint256"
				}
			],
			"name": "Deposited",
			"type": "event"
		},
		{
			"anonymous": false,
			"inputs": [
				{
					"indexed": false,
					"internalType": "address",
					"name": "user",
					"type": "address"
				},
				{
					"indexed": false,
					"internalType": "uint256",
					"name": "amount",
					"type": "uint256"
				}
			],
			"name": "Withdrawn",
			"type": "event"
		},
		{
			"inputs": [],
			"name": "MaxAdopters",
			"outputs": [
				{
					"internalType": "uint256",
					"name": "",
					"type": "uint256"
				}
			],
			"stateMutability": "view",
			"type": "function"
		},
		{
			"inputs": [
				{
					"internalType": "address",
					"name": "userAddress",
					"type": "address"
				}
			],
			"name": "_getPointRatePerhour",
			"outputs": [
				{
					"internalType": "uint256",
					"name": "",
					"type": "uint256"
				}
			],
			"stateMutability": "view",
			"type": "function"
		},
		{
			"inputs": [
				{
					"internalType": "address",
					"name": "userAddress",
					"type": "address"
				}
			],
			"name": "_getPoints",
			"outputs": [
				{
					"internalType": "uint256",
					"name": "",
					"type": "uint256"
				}
			],
			"stateMutability": "view",
			"type": "function"
		},
		{
			"inputs": [
				{
					"internalType": "address",
					"name": "userAddress",
					"type": "address"
				}
			],
			"name": "_getStakedAmount",
			"outputs": [
				{
					"internalType": "uint256",
					"name": "",
					"type": "uint256"
				}
			],
			"stateMutability": "view",
			"type": "function"
		},
		{
			"inputs": [
				{
					"internalType": "address",
					"name": "userAddress",
					"type": "address"
				}
			],
			"name": "_getStakingDuration",
			"outputs": [
				{
					"internalType": "uint256",
					"name": "",
					"type": "uint256"
				}
			],
			"stateMutability": "view",
			"type": "function"
		},
		{
			"inputs": [],
			"name": "_owner",
			"outputs": [
				{
					"internalType": "address",
					"name": "",
					"type": "address"
				}
			],
			"stateMutability": "view",
			"type": "function"
		},
		{
			"inputs": [
				{
					"internalType": "uint256[]",
					"name": "_DepositRange",
					"type": "uint256[]"
				}
			],
			"name": "_setDepositRanges",
			"outputs": [],
			"stateMutability": "nonpayable",
			"type": "function"
		},
		{
			"inputs": [
				{
					"internalType": "uint256",
					"name": "_earlyAdopterBonus",
					"type": "uint256"
				}
			],
			"name": "_setEarlyAdopterBonus",
			"outputs": [],
			"stateMutability": "nonpayable",
			"type": "function"
		},
		{
			"inputs": [
				{
					"internalType": "uint256",
					"name": "_earlyAdopterThreshold",
					"type": "uint256"
				}
			],
			"name": "_setEarlyAdopterThreshold",
			"outputs": [],
			"stateMutability": "nonpayable",
			"type": "function"
		},
		{
			"inputs": [
				{
					"internalType": "uint256",
					"name": "_MaxAdopters",
					"type": "uint256"
				}
			],
			"name": "_setMaxAdopters",
			"outputs": [],
			"stateMutability": "nonpayable",
			"type": "function"
		},
		{
			"inputs": [
				{
					"internalType": "uint256",
					"name": "_minimumDeposit",
					"type": "uint256"
				}
			],
			"name": "_setMinimumDeposit",
			"outputs": [],
			"stateMutability": "nonpayable",
			"type": "function"
		},
		{
			"inputs": [
				{
					"internalType": "uint256[]",
					"name": "_Points",
					"type": "uint256[]"
				}
			],
			"name": "_setPointsRates",
			"outputs": [],
			"stateMutability": "nonpayable",
			"type": "function"
		},
		{
			"inputs": [
				{
					"internalType": "uint256",
					"name": "_withdrawalPenalty",
					"type": "uint256"
				}
			],
			"name": "_setWithdrawalPenalty",
			"outputs": [],
			"stateMutability": "nonpayable",
			"type": "function"
		},
		{
			"inputs": [
				{
					"internalType": "uint256",
					"name": "_withdrawalPenaltyTime",
					"type": "uint256"
				}
			],
			"name": "_setWithdrawalPenaltyTime",
			"outputs": [],
			"stateMutability": "nonpayable",
			"type": "function"
		},
		{
			"inputs": [],
			"name": "deposit",
			"outputs": [],
			"stateMutability": "payable",
			"type": "function"
		},
		{
			"inputs": [
				{
					"internalType": "uint256",
					"name": "",
					"type": "uint256"
				}
			],
			"name": "depositRanges",
			"outputs": [
				{
					"internalType": "uint256",
					"name": "",
					"type": "uint256"
				}
			],
			"stateMutability": "view",
			"type": "function"
		},
		{
			"inputs": [],
			"name": "earlyAdopterBonus",
			"outputs": [
				{
					"internalType": "uint256",
					"name": "",
					"type": "uint256"
				}
			],
			"stateMutability": "view",
			"type": "function"
		},
		{
			"inputs": [],
			"name": "earlyAdopterThreshold",
			"outputs": [
				{
					"internalType": "uint256",
					"name": "",
					"type": "uint256"
				}
			],
			"stateMutability": "view",
			"type": "function"
		},
		{
			"inputs": [
				{
					"internalType": "uint256",
					"name": "",
					"type": "uint256"
				}
			],
			"name": "earlyAdopterUsers",
			"outputs": [
				{
					"internalType": "address",
					"name": "",
					"type": "address"
				}
			],
			"stateMutability": "view",
			"type": "function"
		},
		{
			"inputs": [],
			"name": "earlyAdoptersCount",
			"outputs": [
				{
					"internalType": "uint256",
					"name": "",
					"type": "uint256"
				}
			],
			"stateMutability": "view",
			"type": "function"
		},
		{
			"inputs": [],
			"name": "getalladopters",
			"outputs": [
				{
					"internalType": "address[]",
					"name": "",
					"type": "address[]"
				}
			],
			"stateMutability": "view",
			"type": "function"
		},
		{
			"inputs": [],
			"name": "minimumDeposit",
			"outputs": [
				{
					"internalType": "uint256",
					"name": "",
					"type": "uint256"
				}
			],
			"stateMutability": "view",
			"type": "function"
		},
		{
			"inputs": [
				{
					"internalType": "uint256",
					"name": "",
					"type": "uint256"
				}
			],
			"name": "pointsRates",
			"outputs": [
				{
					"internalType": "uint256",
					"name": "",
					"type": "uint256"
				}
			],
			"stateMutability": "view",
			"type": "function"
		},
		{
			"inputs": [],
			"name": "totalStakedAmount",
			"outputs": [
				{
					"internalType": "uint256",
					"name": "",
					"type": "uint256"
				}
			],
			"stateMutability": "view",
			"type": "function"
		},
		{
			"inputs": [
				{
					"internalType": "address",
					"name": "",
					"type": "address"
				}
			],
			"name": "users",
			"outputs": [
				{
					"internalType": "uint256",
					"name": "depositAmount",
					"type": "uint256"
				},
				{
					"internalType": "uint256",
					"name": "depositTime",
					"type": "uint256"
				},
				{
					"internalType": "uint256",
					"name": "points",
					"type": "uint256"
				},
				{
					"internalType": "bool",
					"name": "isEarlyAdopter",
					"type": "bool"
				}
			],
			"stateMutability": "view",
			"type": "function"
		},
		{
			"inputs": [
				{
					"internalType": "uint256",
					"name": "amount",
					"type": "uint256"
				}
			],
			"name": "withdraw",
			"outputs": [],
			"stateMutability": "nonpayable",
			"type": "function"
		},
		{
			"inputs": [
				{
					"internalType": "uint256",
					"name": "amount",
					"type": "uint256"
				}
			],
			"name": "withdrawAdmin",
			"outputs": [],
			"stateMutability": "nonpayable",
			"type": "function"
		},
		{
			"inputs": [],
			"name": "withdrawalPenalty",
			"outputs": [
				{
					"internalType": "uint256",
					"name": "",
					"type": "uint256"
				}
			],
			"stateMutability": "view",
			"type": "function"
		},
		{
			"inputs": [],
			"name": "withdrawalPenaltyTime",
			"outputs": [
				{
					"internalType": "uint256",
					"name": "",
					"type": "uint256"
				}
			],
			"stateMutability": "view",
			"type": "function"
		}
	]
}